:020000040800F2
:10000000580C00202D050008010300080303000818
:10001000070300080B0300080F030008000000009E
:1000200000000000000000000000000013030008B2
:10003000150300080000000017030008190300085A
:100040004705000847050008470500084705000860
:100050004705000847050008470500084705000850
:100060004705000847050008470500084705000840
:100070004705000847050008470500084705000830
:100080004705000847050008470500084705000820
:100090004705000847050008470500084705000810
:1000A0004705000847050008470500084705000800
:1000B00047050008F14C00085B4C000847050008A4
:1000C00047050008470500084705000847050008E0
:1000D00047050008E3230008470500084705000816
:1000E00047050008470500084705000847050008C0
:1000F00047050008470500084705000847050008B0
:10010000470500084705000847050008470500089F
:10011000470500084705000847050008470500088F
:10012000470500084705000847050008470500087F
:10013000470500084705000847050008470500086F
:10014000470500084705000847050008470500085F
:10015000470500084705000847050008470500084F
:10016000470500084705000847050008470500083F
:10017000470500084705000847050008470500082F
:10018000470500084705000800F002F800F06AF88B
:100190000AA090E8000C82448344AAF10107DA45E2
:1001A00001D100F05FF8AFF2090EBAE80F0013F0CA
:1001B000010F18BFFB1A43F001031847386B00000A
:1001C000586B00000A444FF0000C10F8013B13F08C
:1001D000070408BF10F8014B1D1108BF10F8015BA0
:1001E000641E05D010F8016B641E01F8016BF9D193
:1001F00013F0080F1EBF10F8014BAD1C0C1B09D1EA
:100200006D1E58BF01F801CBFAD505E014F8016B5B
:1002100001F8016B6D1EF9D59142D6D370470000ED
:100220000023002400250026103A28BF78C1FBD8FF
:10023000520728BF30C148BF0B6070471FB506F09A
:1002400087FC05F017F804000020002106F078FA7A
:10025000401C60600020002106F05CFAE0601FBDD9
:1002600010B510BD04F0E0FF1146FFF7E7FF00F006
:1002700009F805F063FA03B4FFF7F2FF03BC01F0DD
:100280005BFF000010B54FF4A06000F06FF9A820EC
:1002900001F0D0FE4FF4E13001F05CFF04F0F0FA21
:1002A00003F098F902F0E4F804F096FD532140F2CF
:1002B000F31004F0EDFD532140F2F31004F033FE8F
:1002C0004FF4FA710C4801F0D4F84FF4FA710B486E
:1002D00001F0CFF804F052FC42F2CF0140F2E730D7
:1002E00004F0DAFC02F0E5FA002002F01CFC03F056
:1002F000B1FA002010BD0000004401400048014058
:10030000704700BFFEE700BFFEE700BFFEE700BF8B
:10031000FEE7704770477047704700000CB500203B
:10032000019000907648006840F48030744908607D
:1003300000BF7348006800F4003000900198401C32
:100340000190009818B90198B0F5A04FF1D16C4810
:10035000006800F4003010B10120009001E000209E
:1003600000900098012846D165484030006840F070
:1003700080506349403108606248006840F4404062
:10038000604908605E48083000685D4908310860CF
:100390000846006840F4004008600846006840F4E1
:1003A000A05008605848091F0860081F006840F006
:1003B0008070091F086000BF5148006800F000709D
:1003C0000028F9D040F20570504908604C480830C8
:1003D000006820F003004A490831086008460068B8
:1003E00040F00200086000BF45480830006800F097
:1003F0000C000828F8D10CBD10B54548006840F441
:100400007000434908603E48006840F001003C49E4
:10041000086000203A4908310860394800683D49C1
:100420000840374908603C48091D0860081F0068FB
:1004300020F48020091F0860002031490C31086039
:10044000FFF76CFF4FF0006031498039086010BD44
:1004500070B500200022022300240221284D083517
:100460002D6805F00C0020B1042806D0082834D1EE
:1004700007E02A4D2A4E356033E02A4D284E35607C
:100480002FE01F4D2D1D2D68C5F380541C4D2D1DD3
:100490002D6805F03F0154B1224DB5FBF1F5184E22
:1004A000361D3668C6F3881605FB06F209E01B4DBB
:1004B000B5FBF1F5124E361D3668C6F3881605FBFE
:1004C00006F20F4D2D1D2D68C5F301456D1C6B0007
:1004D000B2FBF3F5124E356003E0104D104E35605F
:1004E00000BF00BF064D08352D68C5F303150E4E3D
:1004F000705D0B4D2D68C540094E356070BD000024
:10050000003802400070004008544007003C0240A0
:1005100088ED00E0FFFFF6FE103000240024F40018
:100520001800002000127A001C00002009488047B3
:1005300009480047FEE7FEE7FEE7FEE7FEE7FEE7C5
:10054000FEE7FEE7FEE7FEE704480549054A064BDD
:1005500070470000F90300088901000858060020D0
:10056000580C002058080020580800203249014348
:10057000324A1160704770B5002100230F22C47801
:100580001CB32E4C246804F4E064C4F5E064C4F3A6
:100590000721C1F10404E3B20A4144789C40E1B26E
:1005A0008478144021430C07210E254C05786155B1
:1005B000047804F01F050124AC4005786D11AD00EE
:1005C00005F1E025C5F8004109E0047804F01F05B5
:1005D0000124AC401B4D0678761145F8264070BDCD
:1005E000194A0A400243154B1B1F1A60704739B164
:1005F000124A121D12680243104B1B1D1A6006E0BE
:100600000E4A121D126882430C4B1B1D1A60704764
:10061000042808D14FF0E021096941F004014FF0AE
:10062000E022116107E04FF0E021096921F00401A7
:100630004FF0E022116170470000FA050CED00E078
:1006400000E400E080E100E080FFFF1F10B50446F9
:100650009848844208D10121084600F086FB002119
:10066000012000F082FB76E09348844208D101210A
:10067000022000F07AFB0021022000F076FB6AE005
:100680008E48844208D10121042000F06EFB002135
:10069000042000F06AFB5EE08948844208D1012111
:1006A000082000F062FB0021082000F05EFB52E011
:1006B0008448844208D10121102000F056FB00211B
:1006C000102000F052FB46E07F48844208D101210F
:1006D000202000F04AFB0021202000F046FB3AE0F9
:1006E0007A48844208D10121402000F03EFB0021DD
:1006F000402000F03AFB2EE07548844208D10121E9
:10070000802000F032FB0021802000F02EFB22E050
:100710007048844208D10121801500F026FB002199
:10072000A01500F022FB16E06B48844208D101219D
:10073000401500F01AFB0021601500F016FB0AE0DE
:100740006648844207D10121001500F00EFB00210C
:10075000201500F00AFB10BDF0B50A460021002369
:10076000002400BF3DE0012505FA01F3156805EA04
:1007700003049C4234D105684F000326BE40B543B4
:10078000056015794E00B54006683543056015795A
:10079000012D02D01579022D16D185684F00032650
:1007A000BE40B543856055794E00B54086683543F7
:1007B0008560456801268E40B54345604568967959
:1007C0008E40B6B235434560C5684F000326BE4033
:1007D000B543C560D5794E00B540C6683543C560A0
:1007E000491C1029BFD3F0BD4FF6FF7101600021F5
:1007F000017141718171C171704708B54FF4803248
:100800000092009A0A430092009AC261C161009A64
:10081000C261C2690092C269009208BD024600200E
:1008200013690B400BB1012000E000207047014626
:10083000086980B270470246002053690B400BB133
:10084000012000E0002070470146486980B27047EF
:1008500001837047418370470AB1018300E04183FF
:1008600070474161704742694A4042617047F0B544
:10087000002300244D07ED0E02FA05F3CE1000F11F
:10088000200555F826504E07F70E0F26BE40B543FB
:10089000CF1000F1200646F82750CE1000F12005B9
:1008A00055F8265045EA0304CE1000F1200545F81E
:1008B0002640F0BD00000240000402400008024053
:1008C000000C0240001002400014024000180240D8
:1008D000001C024000200240002402400028024088
:1008E000F948006840F00100F74908600020F64927
:1008F00008310860F4480068F4490840F24908608B
:10090000F348091D0860F348EF4984310860F04856
:100910001038091D0860EC48006820F48020EA497E
:1009200008600020E8490C310860E7498C31086014
:1009300070470021E44A921C1170114608707047FC
:1009400010B501460022002300204A11012A02D1DD
:10095000DD4C236808E0022A03D1DB4C70342368A5
:1009600002E0D94C7434236801F01F020124944042
:100970001C400CB1012000E0002010BD38B5002063
:1009800000900024002500BF3120FFF7D9FF054665
:100990000098401C00900098B0F5A04F01D0002DA9
:1009A000F2D03120FFF7CCFF08B1012400E0002491
:1009B000204638BD01460020C34A106820F0F800E8
:1009C00040EAC10010607047C349086070470021C9
:1009D000BD4A703211701170012802D004280AD16A
:1009E00004E00121B84A7032117005E00521B64AD1
:1009F0007032117000E000BF00BF7047B749086057
:100A0000704770B5049C41EA82150126C6EB530677
:100A100045EA0645054345EA0465AB4E361D35609B
:100A200070BDAD4908667047820142EA0172A64B6B
:100A300084331A607047A8498866704710B58301EF
:100A400043EA016343EA02739F4C8834236010BD7C
:100A5000A14908677047A049C86470470246002052
:100A6000994B0833186820F0EC6042EA0103184300
:100A7000954B08331860704702460020924B0833AC
:100A8000186820F0784042EA010318438E4B08337F
:100A900018607047014600208B4A0832106820F029
:100AA000030008431060704787480830006800F072
:100AB0000C00704701460020834A0832106820F07D
:100AC000F000084310607047014600207E4A08325B
:100AD000106820F4E0500843106070470146002081
:100AE000794A0832106820F4604040EAC100106082
:100AF0007047F0B5002100220024022500260223C1
:100B0000714F08373F6807F00C0121B1042905D067
:100B1000082937D105E0724F076036E0714F076052
:100B200033E0694F3F1D3F68C7F38056664F3F1D56
:100B30003F6807F03F036EB16A4FB7FBF3F7DFF88A
:100B400088C10CF1040CDCF800C0CCF3881C07FB56
:100B50000CF40CE0624FB7FBF3F7DFF86CC10CF15B
:100B6000040CDCF800C0CCF3881C07FB0CF4564FD7
:100B70003F1D3F68C7F301477F1C7D00B4FBF5F7BD
:100B8000076002E0564F076000BF00BF4E4F0837B6
:100B90003F6807F0F0010909534F7A5C0768D740B6
:100BA0004760494F08373F6807F4E051890A4E4FC4
:100BB0007A5C4768D7408760434F08373F6807F43F
:100BC0006041490B484F7A5C4768D740C760F0BD29
:100BD000002100F44072B2F5407F0AD13A4A08324F
:100BE000116821F4F811414A02401143364A083293
:100BF0001160354A70321268C0F30B031A43324B4E
:100C000070331A607047354944390860704733497A
:100C10004039086070473649086070470146002037
:100C2000294A8C32106820F01F004A1E1043264AC1
:100C30008C321060704701460020234A8C321068C5
:100C400020F4F8504A1E40EA02201F4A8C321060FD
:100C50007047014600201C4A8C32106820F4401076
:100C600008431060704701460020174A8C32106814
:100C700020F4400008431060704701460020124AEB
:100C80008C32106820F440300843106070471949D6
:100C90000860704739B10C4A3032126802430A4B7F
:100CA00030331A6006E0084A303212688243064B3D
:100CB00030331A607047F9B1034A34321268024384
:100CC000014B34331A601CE000380240FFFFF6EAA3
:100CD000103000240030002000004742800E4742C0
:100CE0000024F40000127A002C000020FFFCFF0F0B
:100CF0005C014742E01147428F4A126882438E4BA3
:100D00001A60704739B18C4A121D126802438A4B2F
:100D10001B1D1A6006E0884A121D12688243864B2A
:100D20001B1D1A60704739B1834A0C3212680243A6
:100D3000814B0C331A6006E07F4A0C321268824302
:100D40007D4B0C331A60704739B17B4A1032126800
:100D50000243794B10331A6006E0774A103212686A
:100D60008243754B10331A60704739B1724A243A86
:100D700012680243704B243B1A6006E06E4A243A24
:100D8000126882436C4B243B1A60704739B16A4A3F
:100D9000203A12680243684B203B1A6006E0664A1C
:100DA000203A12688243644B203B1A60704739B185
:100DB000614A1C3A126802435F4B1C3B1A6006E012
:100DC0005D4A1C3A126882435B4B1C3B1A607047B9
:100DD00039B1594A143A12680243574B143B1A600E
:100DE00006E0554A143A12688243534B143B1A608A
:100DF000704739B1504A103A126802434E4B103BCB
:100E00001A6006E04C4A103A126882434A4B103B83
:100E10001A60704739B1484A1C3212680243464B87
:100E20001C331A6006E0444A1C3212688243424B6B
:100E30001C331A60704739B13F4A203212680243AE
:100E40003D4B20331A6006E03B4A20321268824351
:100E5000394B20331A60704739B1374A243212684F
:100E60000243354B24331A6006E0334A24321268B9
:100E70008243314B24331A60704739B12E4A2C32E9
:100E8000126802432C4B2C331A6006E02A4A2C329B
:100E900012688243284B2C331A60704739B1264AB6
:100EA000303212680243244B30331A6006E0224A83
:100EB000303212688243204B30331A607047012869
:100EC00008D11D493C31096841F008011A4A3C32F9
:100ED000116007E018493C31096821F00801164A01
:100EE0003C321160704739B1134A273A12780243F5
:100EF000114B273B1A7006E00F4A273A12788243BB
:100F00000D4B273B1A7070470B484030006840F08B
:100F10008070094940310860704701460020064A48
:100F2000283A12680A400AB1012000E00020704708
:100F300001492639087070473438024010B504461C
:100F4000FE48844208D101210846FFF752FF0021E4
:100F50000120FFF74EFF9DE0B4F1804F08D1012141
:100F60000846FFF735FF00210120FFF731FF91E030
:100F7000F348844208D101210220FFF729FF002114
:100F80000220FFF725FF85E0EE48844208D10121C9
:100F90000420FFF71DFF00210420FFF719FF79E06F
:100FA000E948844208D101210820FFF711FF002100
:100FB0000820FFF70DFF6DE0E448844208D10121CD
:100FC0001020FFF705FF00211020FFF701FF61E06F
:100FD000DF48844208D101212020FFF7F9FE0021DB
:100FE0002020FFF7F5FE55E0DA48844208D10121C0
:100FF0000220FFF7FEFE00210220FFF7FAFE49E083
:10100000D548844209D101210804FFF7F2FE0021EE
:101010004FF48030FFF7EDFE3CE0D048844209D128
:1010200001214804FFF7E5FE00214FF40030FFF7EF
:10103000E0FE2FE0CA48844209D101218804FFF76D
:10104000D8FE00214FF48020FFF7D3FE22E0C548F0
:10105000844208D101214020FFF7BAFE0021402040
:10106000FFF7B6FE16E0C048844208D10121802077
:10107000FFF7AEFE00218020FFF7AAFE0AE0BB4882
:10108000844207D101218015FFF7A2FE0021A0159F
:10109000FFF79EFE10BD00220288A84B98420ED09A
:1010A000AC4B98420BD0B0F1804F08D0A44B984283
:1010B00005D0A44B984202D0A34B984204D14FF6DE
:1010C0008F731A404B881A43A04B984207D0A04B0D
:1010D000984204D04FF6FF431A400B891A4302800E
:1010E0004B68C3620B880385944B984202D0994B9E
:1010F000984201D18B7A03860123838270474FF097
:10110000FF3141600021018001814180817270477F
:101110000185828270470A46002101884FF68F734D
:10112000194011430180704741627047C1627047A6
:101130000146486A70470146088D704721B1028810
:1011400042F00202028004E002884FF6FD731A406A
:101150000280704721B1028842F00402028004E05C
:1011600002884FF6FB731A400280704721B1028853
:1011700042F08002028004E002884FF67F731A403A
:101180000280704702884FF6F7731A400280028887
:101190000A430280704702884FF6FF431A400280DC
:1011A00002880A430280704721B1028842F001029E
:1011B000028004E002884FF6FE731A4002807047F6
:1011C00070B5002400220023058C4FF6FE763540D2
:1011D0000584028C8388048B4FF68F752C40B51ED6
:1011E0002C400D882C43751E2A408D892A434D883A
:1011F0002A43524DA84202D0564DA84213D14FF671
:10120000F7752A40CD892A434FF6FB752A408D8811
:101210002A434FF6FF652B404FF6FF552B400D8AB2
:101220002B434D8A2B43838004838D68456302845E
:1012300070BD70B5002400220023058C4FF6EF76B8
:1012400035400584028C8388048B48F6FF752C405A
:101250004FF6FF452C400D884FF6FF7606EA052530
:101260002C434FF6DF752A408D8906EA05152A437F
:101270004D8806EA05152A43304DA84202D0354D67
:10128000A8421DD14FF67F752A40CD894FF6FF76D3
:1012900006EA05152A434FF6BF752A408D8806EAEF
:1012A00005152A434FF6FF352B404FF2FF752B40B3
:1012B0000D8A06EA85052B434D8A06EA85052B43F0
:1012C000838004838D688563028470BD70B50024BB
:1012D00000220023058C4FF6FF6635400584028C02
:1012E0008388848B4FF68F752C404FF6FC752C400D
:1012F0000D882C434FF6FF552A408D894FF6FF7617
:1013000006EA05252A434D8806EA05252A430B4DA2
:10131000A84202D00F4DA84238D14FF2FF752A40A3
:10132000CD894FF6FF7606EA05252A434FF6FF35AD
:101330002A408D8806EA05252A4319E0000001406D
:101340000004004000080040000C00400010004075
:1013500000140040000401400040014000440140EE
:101360000048014000180040001C004000200040E0
:101370004EF6FF752B404DF6FF752B400D8A06EAA1
:1013800005152B434D8A06EA05152B43838084837C
:101390008D68C563028470BD70B5002200230024EF
:1013A000058C4EF6FF7635400584038C8488828B4D
:1013B00048F6FF752A404FF6FF452A400D884FF644
:1013C000FF7606EA05252A434DF6FF752B408D89E9
:1013D00006EA05352B434D8806EA05352B43FE4DBD
:1013E000A84202D0FD4DA84208D14BF6FF752C4013
:1013F0000D8A4FF6FF7606EA85152C43848082839A
:101400008D680564038470BD002101804180818066
:1014100081608181C18101824182704770B503463C
:10142000002000241846183001258D40ACB21D8CD8
:10143000A5431D8409B108290AD100EB61000568A4
:101440004FF68F76354005600568154305600FE05F
:101450000D1FC5F34E052844056848F6FF76354054
:10146000056005684FF6FF7606EA022635430560FB
:1014700070BD4163704781637047C1637047016409
:1014800070470A460021018B4FF68F7319401143B4
:10149000018370470A460021018B48F6FF7319400B
:1014A0004FF6FF7303EA02231943018370470A468C
:1014B0000021818B4FF68F73194011438183704750
:1014C0000A460021818B48F6FF7319404FF6FF73DF
:1014D00003EA02231943818370470A460021018BE6
:1014E0004FF6F77319401143018370470A460021F4
:1014F000018B4FF2FF7319404FF6FF7303EA02238B
:101500001943018370470A460021818B4FF6F77318
:1015100019401143818370470A460021818B4FF2A5
:10152000FF7319404FF6FF7303EA022319438183C7
:1015300070470A460021018B4FF6FB731940114397
:10154000018370470A460021018B4FF6FF33194093
:101550004FF6FF7303EA02231943018370470A46DB
:101560000021818B4FF6FB73194011438183704733
:101570000A460021818B4FF6FF3319404FF6FF7367
:1015800003EA02231943818370470A460021018B35
:101590004FF67F7319401143018370470A460021BB
:1015A000018BC1F30E014FF6FF7303EA02231943C7
:1015B000018370470A460021818B4FF67F731940E3
:1015C0001143818370470A460021818BC1F30E01CC
:1015D0004FF6FF7303EA02231943818370470A46DB
:1015E0000021018C4FF6FD731940114301847047AF
:1015F0000A460021018C4FF6F7731940114301840C
:1016000070470A460021018C4FF6DF7319404FF6F0
:10161000FF7303EA02131943018470470A4600214D
:10162000018C4FF67F7319404FF6FF7303EA0213E4
:101630001943018470470A460021018C4FF6FF537D
:1016400019404FF6FF7303EA0223194301847047E0
:101650000A460021018C4FF2FF7319404FF6FF73C9
:1016600003EA02231943018470470A460021018CD2
:101670004DF6FF7319404FF6FF7303EA0233194327
:101680000184704730B5002301248C40A3B2048C40
:101690009C430484048C02FA01F5ADB22C4304840B
:1016A00030BD30B5002304248C40A3B2048C9C438D
:1016B0000484048C02FA01F5ADB22C43048430BDDD
:1016C000828B4FF2FF331A408283828B4FF6FF7377
:1016D00003EA01231A4382837047F0B50C4615468E
:1016E000002100220026078C4EF6FF7C07EA0C073B
:1016F0000784818B028C4FF6FF7707EA043640F6A9
:10170000FF4739404FF6FF7707EA052739434FF681
:10171000FF7707EA0337394345F6FF773A4046F447
:1017200080573A4381830284F0BD828B4FF6F37376
:101730001A408283828B0A4382837047F0B50C463D
:101740001546002100220026078C4FF6FF6C07EAA1
:101750000C070784818B028C4FF6FF7707EA04267B
:101760004FF60C7739404FF6FF7707EA03172F4300
:1017700039434FF2FF573A4046F480773A4381832A
:101780000284F0BD028B4FF2FF331A400283028BBA
:101790004FF6FF7303EA01231A4302837047F0B543
:1017A0000C461546002100220026078C4FF6EF7CE0
:1017B00007EA0C070784018B028C4FF6FF7707EAD4
:1017C000041640F6FF4739404FF6FF7707EA033724
:1017D00039434FF6FF7703E0000001400004014069
:1017E00007EA052739434FF65F773A4046F010077E
:1017F0003A4301830284F0BD028B4FF6F3731A4023
:101800000283028B0A4302837047F0B50C461546EB
:1018100000210022068C4FF6FE773E400684018BA5
:10182000028C4FF60C7631407E1C06EA03162E43DE
:1018300031434FF6F576324044F0010632430183DE
:101840000284F0BD70B505460C46208850B9238946
:10185000A28861882846FFF7D8FFE1882846FFF76D
:10186000CBFF25E0208804280AD12389A28861883B
:101870002846FFF794FFE1882846FFF783FF17E02B
:10188000208808280AD12389A28861882846FFF782
:1018900055FFE1882846FFF748FF09E02389A28821
:1018A00061882846FFF719FFE1882846FFF708FFFF
:1018B00070BD002101804180012181800021C18013
:1018C000018170472DE9F04105460C4600260127AD
:1018D000608808B9022600E00026A088012801D10E
:1018E000022700E001272088A0B92389A288618807
:1018F0002846FFF78AFFE1882846FFF77DFF238906
:101900003A4631462846FFF74AFFE1882846FFF766
:1019100039FF13E02389A28861882846FFF73FFF3B
:10192000E1882846FFF72EFF23893A4631462846AC
:10193000FFF76BFFE1882846FFF75EFFBDE8F08107
:101940000146486B70470146886B70470146C86B7B
:1019500070470146086C70470A884B881A438B8889
:101960001A43CB881A430B891A434B891A438B8934
:101970001A43A0F8442070470021018041808180F3
:10198000C180018141818181704731B1B0F844202B
:1019900042F40042A0F8442005E0B0F84420C2F32D
:1019A0000E02A0F84420704721B1828842F0040260
:1019B000828004E082884FF6FB731A408280704771
:1019C00021B1828842F00102828004E082884FF6D1
:1019D000FE731A40828070471AB183890B4383815A
:1019E00002E083898B43838170478182704702467E
:1019F0000020138A0B400BB1012000E0002070474B
:101A0000CA430282704730B50246002000230024FA
:101A1000158A05EA0103958905EA010413B10CB1A1
:101A2000012000E0002030BDCA430282704741EA35
:101A30000203A0F8483070471AB183890B438381B1
:101A400002E083898B438381704721B1828842F011
:101A50000802828004E082884FF6F7731A40828081
:101A6000704701894FF6F8721140018170470A46AC
:101A7000002101894FF68F7319401143018170478E
:101A800030B504460D4629462046FFF7F0FF208971
:101A900040F00700208130BD2DE9F04104460D469D
:101AA00016461F46602D06D13B4601223146204690
:101AB000FFF775FE05E03B46012231462046FFF761
:101AC000A4FE29462046FFF7D2FF208940F00700F8
:101AD0002081BDE8F08130B50C4600210189C9B2F2
:101AE0004FF6FF7505EA0325154325432943018178
:101AF00030BD2DE9F04105460E46174698460024B4
:101B000043463A4631462846FFF7E5FF2C894FF613
:101B1000F870044044F007044FF68F70044044F01E
:101B200070042C81BDE8F081F0B504460D461646E0
:101B30001F463B46324629462046FFF7CCFF208908
:101B400040F480402081F0BD82884FF68F731A40A8
:101B5000828082880A438280704702894FF6F87338
:101B60001A40028102890A430281704702894FF6B6
:101B70007F731A40028102890A4302817047F0B5DF
:101B80000C4615461E460021002200230189028BC7
:101B9000038C4FF6F877394021434FF6FC473A4023
:101BA00040F201173A434FF6DD773B404FF6FF779F
:101BB00007EA06172F433B43018102830384F0BDEC
:101BC00021B1828842F08002828004E082884FF650
:101BD0007F731A4082807047A0F850107047000051
:101BE00010B50446FA48844208D101211020FFF7BD
:101BF00000F900211020FFF7FCF857E0F548844277
:101C000009D101214804FFF7E3F800214FF4003027
:101C1000FFF7DEF84AE0F048844209D10121880448
:101C2000FFF7D6F800214FF48020FFF7D1F83DE010
:101C3000EA48844209D10121C804FFF7C9F800210C
:101C40004FF40020FFF7C4F830E0E548844209D1A2
:101C500001210805FFF7BCF800214FF48010FFF7C1
:101C6000B7F823E0DF48844208D101212020FFF7A4
:101C7000C0F800212020FFF7BCF817E0DA488442C2
:101C800009D101218807FFF7A3F800214FF0804018
:101C9000FFF79EF80AE0D548844207D101214005AC
:101CA000FFF796F800216005FFF792F810BD2DE9C7
:101CB000FF4705460E460024A14600BFA046B08956
:101CC00000B100BF2C8A24F44054F08804432C82D5
:101CD000AC8941F20C608443B08831890843718932
:101CE00008430443AC81AC8A24F44074B0890443B3
:101CF000AC826846FEF7FDFEB548854202D0B94881
:101D0000854202D1DDF80C9001E0DDF80890A88949
:101D100000F4004040B109EBC90000EB0910316844
:101D20004900B0FBF1F707E009EBC90000EB09102F
:101D300031688900B0FBF1F76420B7FBF0F00401D3
:101D40002009642101FB1078A88900F4004040B10B
:101D5000322000EBC800B0FBF1F000F007000443B4
:101D600008E0322000EB08106421B0FBF1F000F035
:101D70000F0004432C81BDE8FF874FF4165101602A
:101D800000218180C18001810C214181002181815C
:101D9000704710B502460020108A20F470600B884E
:101DA0004C8823438C882343CC88234318431082D8
:101DB00010BD0021018041808180C180704721B128
:101DC000828942F40052828104E082894DF6FF73D9
:101DD0001A4082817047028B02F47F420283028B99
:101DE0000A430283704721B1828942F40042828112
:101DF00003E08289C2F30E028281704721B1828A98
:101E000042F40062828204E0828A4FF2FF731A4039
:101E100082827047C1F30802828070470146888839
:101E2000C0F308007047028A4FF6F0731A4002822E
:101E3000028A0A430282704721B1828942F002027B
:101E4000828104E082894FF6FD731A4082817047D7
:101E500082894FF2FF731A40828182890A4382810C
:101E60007047028A4FF6DF731A400282028A0A43E1
:101E70000282704721B1028A42F48042028204E069
:101E8000028A4BF6FF731A4002827047818941F043
:101E900001018181704721B1828A42F00802828269
:101EA00004E0828A4FF6F7731A4082827047028BF1
:101EB000D2B20283028B42EA01220283704721B12F
:101EC000828A42F02002828204E0828A4FF6DF7327
:101ED0001A408282704721B1828A42F010028282C7
:101EE00004E0828A4FF6EF731A4082827047828A3A
:101EF0004FF6FB731A408282828A0A4382827047BD
:101F000021B1828A42F00202828204E0828A4FF684
:101F1000FD731A40828270471AB1838A0B43838211
:101F200002E0838A8B4383827047F0B50346002426
:101F300000260025002040F66A17B94200D100BFF4
:101F40001846C1F3421401F01F06012707FA06F5EF
:101F5000012C01D10C3004E0022C01D1103000E042
:101F600014301AB107682F43076002E00768AF43D7
:101F70000760F0BD02460020B1F5007F00D100BF30
:101F800013880B400BB1012000E00020704701F4E2
:101F90000072B2F5007F00D100BFCA4302807047D3
:101FA00070B50246002400230025002040F66A1682
:101FB000B14200D100BFC1F3421501F01F03012659
:101FC00006FA03F3012D13D19689334017E0000080
:101FD000001001400044004000480040004C004018
:101FE000005000400014014000780040007C004098
:101FF000022D02D1168A334001E0968A33400C123A
:10200000012606FA04F41688344013B10CB10120FD
:1020100000E0002070BD10B50022002340F66A14D5
:10202000A14200D100BF0A1201249440A3B2DC43B4
:10203000048010BD10B504466FF00400FEF7E8FA06
:10204000E11704EB5171C1F3C701394A1170104611
:10205000007800EB4001C1EBC0104FF6FF7101EAC0
:10206000C0003449088010BD0146314A12784A4305
:102070004FF0E0235A6100229A611A46126942F039
:1020800001021A6100BF4FF0E022106900F0010266
:102090001AB100F48032002AF5D04FF0E022126924
:1020A00022F001024FF0E0231A6100229A6170478A
:1020B0000146204A12884A434FF0E0235A61002229
:1020C0009A611A46126942F001021A6100BF4FF08C
:1020D000E022106900F001021AB100F48032002AF7
:1020E000F5D04FF0E022126922F001024FF0E02318
:1020F0001A6100229A61704770B504464FF4077068
:1021000094FBF0F0C6B24FF4077094FBF0F100FBC3
:10211000114085B205E04FF40770FFF7C9FF701E4C
:10212000C6B2002EF7D115B12846FFF7C1FF70BD2A
:102130003C0000203E000020014600BF704700BF69
:10214000C64A128802F04002002AF9D0C2B2C34B3C
:102150009A80704710B588B0044601210846FEF702
:1021600099FD01211020FEF7EFFD07220921BC484F
:10217000FEF77DFB07220A21B948FEF778FB4FF4F2
:10218000C060069002208DF81C008DF81D00002014
:102190008DF81E0001208DF81F0006A9B048FEF73B
:1021A000DBFA02940020ADF80C00ADF80E00ADF89B
:1021B0001000ADF814000C20ADF8120002A9A748D9
:1021C000FFF775FD0121A548FFF7F9FD012240F257
:1021D0002551A248FFF7A9FE25208DF80400032011
:1021E0008DF805008DF8060001208DF8070001A884
:1021F000FEF7C1F908B010BD00BF9849098801F089
:1022000040010029F9D095498880704700B5024601
:102210001046FFF7F1FF00BD30B5044604B930BDEC
:102220000A2094FBF0F52846FFF7F6FF0A2094FBFE
:10223000F0F100FB11403030C2B21046FFF7DCFF76
:1022400000BFECE700B5024603E01078FFF7D4FFCB
:10225000521C10780028F8D100BD70B52DED028B0E
:10226000B0EE408A0026BDEEC80A10EE104A00EE1D
:10227000104AB8EEC00A38EE400AF2EE040A20EE28
:10228000200AF0EE408A00EE104AB8EEC00A38EE9E
:10229000400ADFED740A20EE200ABDEEC00A10EEFF
:1022A000105A0A2095FBF0F100FB1150052804DBC1
:1022B0000A2095FBF0F0451C02E00A2095FBF0F5A2
:1022C0002046FFF7A9FF2E20FFF796FF0CE0761CB3
:1022D000042E00DD0EE03020FFF78EFFB2EE040A80
:1022E00028EE800AF0EE408ABDEEE80A10EE100AF1
:1022F0000028ECD000BF2846FFF78EFFBDEC028B14
:1023000070BD0FB410B52DED028B82B007A80190FF
:102310005CE006980078252807D006990878FFF732
:102320006BFF0698401C069050E00698401C0690F3
:1023300006980078632806D0642810D0662822D03A
:1023400073283AD115E0019810F8041BCBB2019024
:102350001846FFF75BFF0698401C069035E0019891
:1023600010C801902046FFF757FF0698401C0690C2
:102370002BE0019808C801901846FFF763FF069804
:10238000401C069021E00198C01D20F0070001903C
:10239000B0EC021BB0EE410AF0EE610A019051EC84
:1023A000100B04F0E3F908EE100AB0EE480AFFF74C
:1023B00054FF0698401C069007E006990878FFF73E
:1023C00025FF0698401C069000BF00BF06980078C5
:1023D00000289ED1019002B0BDEC028B10BC5DF8CC
:1023E00014FB10B540F225511C48FFF7D9FD10B37E
:1023F0001A48FFF713FDC4B21B48008800F40040E0
:10240000C8B91948008800F4804060B10A2C03D094
:1024100000201549088020E01348008840F400405F
:102420001149088019E00D2C06D10F48008840F4AE
:1024300080400D49088010E00B480088C0F30D0073
:102440000A490C5408480088401C0749088008467F
:102450000088C72801DD0020088010BD0010014061
:10246000000002400050C34744000020F004002058
:10247000DB48006840F02000D9490860D94800686E
:1024800020F00300D74908600846006840F00100CA
:102490000860D4480830006820F00300D1490831B2
:1024A00008600846006840F002000860081D0068E7
:1024B00020F00300091D08600846006840F0010094
:1024C0000860C848001D006820F00100C549091DCA
:1024D0000860084600680860C2481430006840F090
:1024E0000100C04914310860BE48006820F00C00AB
:1024F000BC4908600846006840F004000860B9481C
:102500000830006820F00C00B64908310860084621
:10251000006840F008000860081D006820F00C000A
:10252000091D08600846006840F004000860AD48D6
:10253000001D006820F00200AA49091D0860084635
:1025400000680860A7481430006840F00200A54900
:1025500014310860A348006820F03000A1490860E9
:102560000846006840F0100008609E480830006887
:1025700020F030009B49083108600846006840F0B0
:1025800020000860081D006820F03000091D086068
:102590000846006840F0100008609248001D00687E
:1025A00020F004008F49091D086008460068086093
:1025B0008C481430006840F004008A4914310860E7
:1025C0008848006820F0C000864908600846006816
:1025D00040F04000086083480830006820F0C000E8
:1025E0008049083108600846006840F080000860B3
:1025F000081D006820F0C000091D0860084600683A
:1026000040F0400008607748001D006820F0080096
:102610007449091D08600846006808607148143054
:10262000006840F008006F49143108606D48006888
:1026300020F440706B4908600846006840F48070E0
:10264000086068480830006820F440706549083127
:1026500008600846006840F400700860081D0068C3
:1026600020F44070091D08600846006840F480703E
:1026700008605C48001D006820F010005949091DE1
:10268000086008460068086056481430006840F04A
:1026900010005449143108605248006820F440602A
:1026A000504908600846006840F4806008604D4862
:1026B0000830006820F440604A4908310860084644
:1026C000006840F400600860081D006820F4406065
:1026D000091D08600846006840F4806008604148B1
:1026E000001D006820F020003E49091D08600846D2
:1026F000006808603B481430006840F02000394909
:10270000143108603748006820F4402035490860DB
:102710000846006840F480200860324808300068AD
:1027200020F440202F49083108600846006840F432
:1027300000200860081D006820F44020091D086082
:102740000846006840F4802008602648001D0068A4
:1027500020F400702349091D0860084600680860DD
:1027600020481430006840F400701E49143108609D
:102770001C48006820F440101A49086008460068A8
:1027800040F48010086017480830006820F44010BA
:102790001449083108600846006840F400100860D9
:1027A000081D006820F44010091D086008460068F4
:1027B00040F4801008600B48001D006820F4806021
:1027C0000849091D0860084600680860054814307B
:1027D000006840F4806003491431086070470000CD
:1027E00030380240001402400021082115E000F0BA
:1027F00080021AB10122FB4B1A6002E00022F94B61
:102800001A600022F74B1B1F1A600122F64BC3F817
:1028100080224206100E4A1ED1B20029E7DC704722
:1028200010B50020EF490C3108606420FFF764FC0C
:102830000120ED49C1F890026420FFF75DFC10BD56
:1028400010B504460020E749091D0860E649C1F8B3
:102850008C022046FFF7C8FF0120E249091D0860ED
:1028600010BD10B504460020DE49091D0860012096
:10287000DD49C1F88C022046FFF7B6FF0120D94997
:10288000091D086010BD10B504460020D549091D7A
:1028900008600120D449C1F88C02C4F30720FFF777
:1028A000A3FFE0B2FFF7A0FF0120CE49091D086099
:1028B00010BD10B5FFF7B4FF1120FFF7C1FF78205E
:1028C000FFF71AFCB120FFF7BBFF0120FFF7C9FF9C
:1028D0002C20FFF7C6FF2D20FFF7C3FFB220FFF724
:1028E000AFFF0120FFF7BDFF2C20FFF7BAFF2D201F
:1028F000FFF7B7FFB320FFF7A3FF0120FFF7B1FFFA
:102900002C20FFF7AEFF2D20FFF7ABFF0120FFF7D4
:10291000A8FF2C20FFF7A5FF2D20FFF7A2FFB42072
:10292000FFF78EFF0720FFF79CFFC020FFF788FF0F
:10293000A220FFF796FF0220FFF793FF8420FFF706
:1029400090FFC120FFF77CFFC520FFF78AFFC22060
:10295000FFF776FF0A20FFF784FF0020FFF781FFD3
:10296000C320FFF76DFF8A20FFF77BFF2A20FFF7C8
:1029700078FFC420FFF764FF8A20FFF772FFEE2084
:10298000FFF76FFFC520FFF75BFF0E20FFF769FF22
:102990003620FFF755FFC820FFF763FFE020FFF761
:1029A0004FFF0F20FFF75DFF1A20FFF75AFF0F20A0
:1029B000FFF757FF1820FFF754FF2F20FFF751FFB5
:1029C0002820FFF74EFF2020FFF74BFF2220FFF7C4
:1029D00048FF1F20FFF745FF1B20FFF742FF232082
:1029E000FFF73FFF3720FFF73CFF0020FFF739FFDD
:1029F0000720FFF736FF0220FFF733FF1020FFF715
:102A000030FFE120FFF71CFF0F20FFF72AFF1B20FC
:102A1000FFF727FF0F20FFF724FF1720FFF721FF05
:102A20003320FFF71EFF2C20FFF71BFF2920FFF7A5
:102A300018FF2E20FFF715FF3020FFF712FF302080
:102A4000FFF70FFF3920FFF70CFF3F20FFF709FFCB
:102A50000020FFF706FF0720FFF703FF0320FFF723
:102A600000FF1020FFF7FDFE2A20FFF7E9FE0020FF
:102A7000FFF7F7FE0220FFF7F4FE0020FFF7F1FE5C
:102A80008220FFF7EEFE2B20FFF7DAFE0020FFF793
:102A9000E8FE0320FFF7E5FE0020FFF7E2FE8320BB
:102AA000FFF7DFFEF020FFF7CBFE0120FFF7D9FE96
:102AB000F620FFF7C5FE0020FFF7D3FE3A20FFF710
:102AC000BFFE0520FFF7CDFE2920FFF7B9FE10BDA0
:102AD000F0B504460D4616461F462A20FFF7B0FE05
:102AE0000020FFF7BEFEA11CC8B2FFF7BAFE00200F
:102AF000FFF7B7FEB11CC8B2FFF7B3FE2B20FFF7FC
:102B00009FFE0020FFF7ADFEE91CC8B2FFF7A9FE4B
:102B10000020FFF7A6FEF91CC8B2FFF7A2FE2C208A
:102B2000FFF78EFEF0BD70B506467F231A460021E2
:102B30000846FFF7CDFF00240AE0002504E03046F8
:102B4000FFF7A1FE681CC5B2802DF8DB601CC4B283
:102B5000802CF2DB70BD2DE9F04307464FF6FF7085
:102B6000FFF7E1FF00262BE0002526E006EB860CB0
:102B70004FEACC0C0CF1270305EB850C4FEACC0C8B
:102B80000CF1270206EB860C4FEACC0105EB850C15
:102B90004FEACC00FFF79CFF00240AE017F81490DE
:102BA00007EB440090F8018049EA0820FFF76BFE2C
:102BB000641CB4F5C86FF1DB6D1C032DD6DB761CED
:102BC000032ED1DBBDE8F083F0B505464FF6FF706C
:102BD000FFF7A9FF7F231A4600210846FFF778FF79
:102BE00000240DE0848242420080424215F81470B5
:102BF00005EB4400467847EA0620FFF744FE641CD4
:102C0000B4F57E5FF2DBF0BD2DE9F04780468946E2
:102C100014461D46DDF820A009F1270308F127021C
:102C200049464046FFF754FF002616E0002710E013
:102C30001AF8060080213941084018B12046FFF7F4
:102C400022FE04E0AC4202D02846FFF71CFE781CAE
:102C5000C7B2082FECDB701CC6B2C82EE6DBBDE89D
:102C6000F08770B506460C462346B21C2146304616
:102C7000FFF72EFF002505E04FF6FF70FFF703FE7C
:102C8000681CC5B2022DF7DB70BD30B58023012270
:102C900050210020FFF71CFF00240BE0002505E079
:102CA0004FF6FF70FFF7EFFD681CC5B2302DF7DB64
:102CB000601CC4B2022CF1DB80231A467E21002066
:102CC000FFF706FF00240BE0002505E04FF6FF703C
:102CD000FFF7D9FD681CC5B2812DF7DB601CC4B2BB
:102CE000022CF1DB30BD30B557480068801C5649D6
:102CF000086008460068802801DD022008607E2305
:102D0000514802680A3250210068FFF7E1FE0024B2
:102D10000AE0002504E00020FFF7B5FD681CC5B2FD
:102D20002E2DF8DB601CC4B20B2CF2DBB5EEC00A12
:102D3000F1EE10FA0FDBF2EE000A80EE201ADFED62
:102D4000430AF3EE081A41EE610AFDEEE00A40483C
:102D5000C0ED000A10E0F1EE400AF2EE001A80EE3B
:102D6000A11ADFED3A0AF3EE081A41EE210AFDEE50
:102D7000E00A3748C0ED000A3648D0ED000AF5EE0B
:102D8000C00AF1EE10FA11DBD0ED000AF2EE001AE3
:102D900080EEA11ADFED2D0AF3EE081A41EE610A6A
:102DA000FDEEE00A2C48C0ED000A11E02948D0ED04
:102DB000000AF2EE001A80EEA11ADFED240AF3EE0B
:102DC000081A41EE210AFDEEE00A2348C0ED000A90
:102DD000214803689B1C802201680020FFF778FED1
:102DE000002405E04FF47840FFF74DFD601CC4B2AD
:102DF000802CF7DB1648016813480068FFF731FFA5
:102E00006823802267210020FFF762FE00240BE088
:102E1000002505E04FF6FF70FFF735FD681CC5B2D1
:102E2000022DF7DB601CC4B2802CF1DB084800687F
:102E30000A49086030BD0020034908600449086061
:102E40000549086070470000500000200000D04293
:102E500054000020C4040020580000205C00002022
:102E60000146A1F120005B2832D2DFE800F0EE310C
:102E700031313131313131313131EDEC56312E32A8
:102E8000363A3E42464A4E52EBEAE931E831315A8F
:102E90005E62666A6E72767A7E82868A8E92969A72
:102EA0009EA2A6AAAEB2B6BABE313131313131C21C
:102EB000C6CACEEFF3F7FBFFE2E1E0DFDEDDDCDBED
:102EC000DAD9D8D7D6D5D4D3D200F948F94A106088
:102ED00030E1F948F74A10602CE1F848F54A1060F3
:102EE00028E1F748F34A106024E1F648F14A1060FF
:102EF00020E1F548EF4A10601CE1F448ED4A10600B
:102F000018E1F348EB4A106014E1F248E94A106016
:102F100010E1F148E74A10600CE1F048E54A106022
:102F200008E1EF48E34A106004E1EE48E14A10602E
:102F300000E1ED48DF4A1060FCE0EC48DD4A10603B
:102F4000F8E0EB48DB4A1060F4E0EA48D94A106048
:102F5000F0E0E948D74A1060ECE0E848D54A106054
:102F6000E8E0E748D34A1060E4E0E648D14A106060
:102F7000E0E0E548CF4A1060DCE0E448CD4A10606C
:102F8000D8E0E348CB4A1060D4E0E248C94A106078
:102F9000D0E0E148C74A1060CCE0E048C54A106084
:102FA000C8E0DF48C34A1060C4E0DE48C14A106090
:102FB000C0E0DD48BF4A1060BCE0DC48BD4A10609C
:102FC000B8E0DB48BB4A1060B4E0DA48B94A1060A8
:102FD000B0E0D948B74A1060ACE0D848B54A1060B4
:102FE000A8E0D748B34A1060A4E0D648B14A1060C0
:102FF000A0E0D548AF4A10609CE0D448AD4A1060CC
:1030000098E0D348AB4A106094E0D248A94A1060D7
:1030100090E06FE06AE065E060E05BE056E051E080
:103020004CE047E042E03DE038E033E02EE029E0CC
:1030300024E01FE01AE015E010E00BE006E071E08C
:1030400074E05FE066E069E060E057E0C248994AFA
:1030500010606FE0C148974A10606BE0C048954A25
:10306000106067E0BF48934A106063E0BE48914A31
:1030700010605FE0BD488F4A10605BE0BC488D4A3D
:10308000106057E0BB488B4A106053E0BA48894A49
:1030900010604FE0B948874A10604BE0B848854A55
:1030A000106047E0B748834A106043E0B648814A61
:1030B00010603FE0B5487F4A10603BE0B4487D4A6D
:1030C000106037E0B3487B4A106033E0B248794A79
:1030D00010602FE0B148774A10602BE0B048754A85
:1030E000106027E0AF48734A106023E0AE48714A91
:1030F00010601FE0AD486F4A10601BE0AC486D4A9D
:10310000106017E0AB486B4A106013E0AA48694AA8
:1031100010600FE0A948674A10600BE0A848654AB4
:10312000106007E0A748634A106003E0A648614AC0
:10313000106000BF00BF5F48006870472DE9F04194
:103140000646A248006800F10F03A1480068C21DAE
:103150009E4801689E480068FFF7BAFC3046FFF7BA
:103160007FFE0746002414E000250EE0385D802134
:103170002941084020B14FF6FF70FFF784FB02E0C1
:103180000020FFF780FB681CC5B2082DEEDB601C39
:10319000C4B2102CE8DB8E48006808308C49086007
:1031A00008460068802806DB002008608748006821
:1031B000103086490860BDE8F08110B5044620460D
:1031C000FFF7BCFF10BD70B5044604B970BD0A20FE
:1031D00094FBF0F52846FFF7F6FF0A2094FBF0F188
:1031E00000FB11403030C5B22846FFF7A7FF00BFF3
:1031F000ECE710B5044603E02078FFF79FFF641C5E
:1032000020780028F8D110BD70B52DED028BB0EEFE
:10321000408A0026BDEEC80A10EE104A00EE104AA1
:10322000B8EEC00A38EE400AF2EE040A20EE200A98
:10323000F0EE408A00EE104AB8EEC00A38EE400ABE
:10324000DFED640A20EE200ABDEEC00A10EE105A2F
:103250000A2095FBF0F100FB1150052804DB0A2041
:1032600095FBF0F0451C02E00A2095FBF0F52046A6
:10327000FFF7A9FF2E20FFF761FF0CE0761C042E5C
:1032800000DD0EE03020FFF759FFB2EE040A28EE11
:10329000800AF0EE408ABDEEE80A10EE100A00281F
:1032A000ECD000BF2846FFF78EFFBDEC028B70BD4F
:1032B000A0030020B8040020B0030020C0030020B9
:1032C000D0030020E0030020F003002000040020D1
:1032D00010040020200400203004002040040020BE
:1032E000600000207000002080000020900000207E
:1032F000A0000020B0000020C0000020D00000206E
:10330000E0000020F000002000010020100100205B
:103310002001002030010020400100205001002049
:103320006001002070010020800100209001002039
:10333000A0010020B0010020C0010020D001002029
:10334000E0010020F0010020000200201002002017
:103350002002002030020020400200205002002005
:1033600060020020700200208002002090020020F5
:10337000A0020020B0020020C0020020D0020020E5
:10338000E0020020F00200200003002010030020D3
:1033900020030020300300204003002050030020C1
:1033A00060030020700300208003002090030020B1
:1033B000B8050020600400205004002070040020A4
:1033C00080040020A004002090040020B404002009
:1033D000B00400200050C3470FB410B52DED028B90
:1033E00082B007A801908CE006980078252837D095
:1033F000069800780A280BD006980078082807D08D
:1034000006990878FFF79AFE0698401C069078E027
:10341000069800780A280BD100206949086069489D
:1034200000681030674908600698401C069068E004
:1034300006980078082864D1614800680838604917
:10344000086008460068002806DC782008605D48AF
:10345000006810385B4908600698401C069050E0F0
:103460000698401C069006980078632806D06428C9
:1034700010D0662822D073283AD115E0019810F8B0
:10348000041BCCB201902046FFF797FE0698401C23
:10349000069035E0019810C801902046FFF793FE92
:1034A0000698401C06902BE0019810C80190204619
:1034B000FFF79FFE0698401C069021E00198C01D72
:1034C00020F007000190B0EC021BB0EE410AF0EED4
:1034D000610A019051EC100B03F048F908EE100A54
:1034E000B0EE480AFFF790FE0698401C069007E0F1
:1034F00006990878FFF761FE0698401C069000BF09
:1035000000BF0698007800287FF46EAF019002B0EB
:10351000BDEC028B10BC5DF814FB2A48006810302B
:103520002849086070472748006810382549086016
:10353000704710B50A20FEF7DFFD0020FFF7F3FA11
:1035400000201F4908601F49086010BD10B5702099
:103550001B49086000201B4908601BA0FFF73CFFC7
:1035600010BD10B5202016490860002015490860DC
:1035700016A0FFF731FF10BD10B5114800680838DC
:103580000F49086012A0FFF727FF0D4800680838B0
:103590000B49086008460068083808600BA0FFF770
:1035A0001BFF10BD10B506480068083804490860C4
:1035B00007A0FFF711FF05A0FFF70EFF10BD0000E9
:1035C000B0040020B40400203C2D00005600000090
:1035D000200000001CB501212820FDF75BFB4FF403
:1035E0002840009000208DF8040003208DF805008D
:1035F00001208DF8070069466948FDF7ADF83420D1
:10360000009001208DF804008DF8070000208DF84F
:10361000060003208DF8050069466248FDF79CF816
:103620001CBD10B5604800786049087000206049F2
:103630000870A4E05E48007850B900205D49086039
:1036400001205D49C1F890025A490C3108601CE024
:103650005748007801280AD1564908600020564989
:10366000C1F89002012053490C3108600DE0504828
:103670000078022809D101204E4908604E49C1F85E
:10368000900200204B490C3108604FF4006144481F
:10369000FDF7C4F860B14FF400514148FDF7BEF8A2
:1036A00030B14FF400413E48FDF7B8F800285ED134
:1036B0000520FEF721FD4FF400613948FDF7AEF813
:1036C000B8B93C48006818B90120374908705BE078
:1036D00038480830006818B902203349087053E0B0
:1036E00034480C300068002844D103202E4908706B
:1036F0004AE04FF400512A48FDF790F8B0B92D4840
:10370000006818B90420284908703DE029480830AD
:10371000006818B905202449087035E025480C30A8
:10372000006818BB0620204908702DE04FF40041C6
:103730001B48FDF773F8B0B91E48006818B9072098
:103740001949087020E01B480830006818B90820A3
:103750001549087018E017480C30006830B9092086
:103760001149087010E000200F49087002E00020A5
:103770000D4908700E480078401C0D4908700C482F
:10378000007802287FF756AF00BF08480078064946
:103790000978884201D1002010BD03480078FBE77A
:1037A00000140240000C0240BE040020BD040020B2
:1037B000BC040020888241420080414210B5464846
:1037C0000078401E4449087044A0FFF705FE43A05E
:1037D000FFF702FE42A0FFF7FFFD41A0FFF7FCFD4F
:1037E000FFF7A1FE3DA0FFF7F7FD3CA0FFF7F4FDBA
:1037F0003CA0FFF7F1FD10BD10B537480078012857
:1038000002D0022806D102E000F091FC02E000F0B4
:103810006EFF00BF00BF10BD10B52F480078401CE0
:103820002D4908702DA0FFF7D7FD2CA0FFF7D4FD80
:103830002BA0FFF7D1FD2AA0FFF7CEFDFFF76DFE0D
:1038400026A0FFF7C9FD25A0FFF7C6FD25A0FFF7BD
:10385000C3FD10BD24A0FFF7BFFDFFF777FE39E0E1
:10386000FFF7DFFE04460A2C18D2DFE804F0170544
:1038700006090C101112131610E0FFF7CDFF0DE032
:10388000FFF7BAFF0AE022A0FFF7A6FD06E005E079
:1038900004E003E0FFF792FF00E000BF00BF032C4D
:1038A00018D100201B4908704FF4FA711A48FDF72F
:1038B000E0FD4FF4FA711948FDF7DBFDFFF7BBFAA5
:1038C000012005490870FFF734FE07A0FFF784FDCB
:1038D000FFF73CFEC4E70000BF0400200800000022
:1038E000200000003C2D0000312E5345542050494B
:1038F0004420200A322E53455420616E676C6520A7
:103900000A332E72657475726E20200A0000000062
:10391000340000000C000020004401400048014039
:1039200010B58CB000208DF82C008DF820008DF89B
:1039300014008DF80800FE490870002406E0E0B28B
:1039400001F0C5F809A90855601CC4B2072CF6DDC2
:10395000002408E004F10801C8B201F0B8F806A993
:103960000855601CC4B2072CF4DD002408E004F103
:103970003001C8B201F0ABF803A90855601CC4B20D
:10398000072CF4DD002408E004F13801C8B201F08E
:103990009EF80DF80400601CC4B2072CF4DDFFF79C
:1039A000C8FDE4A0FFF718FD09A8FFF715FDE3A087
:1039B000FFF712FDE2A0FFF70FFD06A8FFF70CFDD1
:1039C000DEA0FFF709FDE0A0FFF706FD03A8FFF763
:1039D00003FDDAA0FFF700FDDDA0FFF7FDFC684660
:1039E000FFF7FAFCD5A0FFF7F7FCDBA0FFF7F4FC2C
:1039F000FFF74BF9FFF7AAFD0120CD4908700CB085
:103A000010BD00200BE0D7490A68411C515CD64A22
:103A100011540021D34A12681154411CC8B207281E
:103A2000F1DD2E21D04AD170704710B52DED068BF7
:103A3000CC4800680078502825D1FFF7E2FFCA493A
:103A4000002001F078F80A20FEF756FBC64802F085
:103A500007FDB0EE40AAF0EE60AA51EC1A0B02F09E
:103A600085FE08EE100AB0EE480A01F0CFF90020FA
:103A7000AF4908700120BD490870FFF7DCF9FFF776
:103A800058FDFFF74DFFB74800680078492822D15C
:103A9000FFF7B7FFB449082001F04DF8B24802F033
:103AA000DFFCB0EE40AAF0EE60AA51EC1A0B02F077
:103AB0005DFE08EE900AB0EE680A01F0AFF9002052
:103AC0009B4908700120A9490870FFF7B4F9FFF776
:103AD00030FDFFF725FFA34800680078442822D175
:103AE000FFF78FFFA049302001F025F89E4802F033
:103AF000B7FCB0EE40AAF0EE60AA51EC1A0B02F04F
:103B000035FE09EE100AB0EE490A01F08BF90020EB
:103B100087490870012095490870FFF78CF9FFF775
:103B200008FDFFF7FDFEBDEC068B10BD10B58F48FC
:103B30000078012821DD8D480078401E8B490870EF
:103B400000207B4908708AA0FFF746FC88A0FFF799
:103B500043FC88A0FFF740FC86A0FFF73DFCFFF781
:103B6000E2FC83A0FFF738FC81A0FFF735FC82A0C0
:103B7000FFF732FC01206E49087010BD08B57A4885
:103B80007E490968405C30387D4908600846006815
:103B9000401C086008460068002801DA0920086017
:103BA00077480068092802DD0020754908607348DD
:103BB0000068032818D07248007830306A496F4A8C
:103BC0001268885408466D490968405C0090FFF708
:103BD000A4FC67A0FFF700FC6846FFF7FDFBFFF7BA
:103BE000A2FC68A0FFF7F8FB08BD08B55E48634972
:103BF0000968405C30386249086008460068401E29
:103C0000086008460068002801DA092008605C485E
:103C10000068092802DD00205949086057480068FB
:103C2000032818D05648007830304F49534A12685C
:103C30008854084651490968405C0090FFF76DFCC4
:103C40004BA0FFF7C9FB6846FFF7C6FBFFF76BFC0D
:103C50004CA0FFF7C1FB08BD30B52DED028B83B042
:103C600000208DF8080032490870FFF762FC00243C
:103C700008E004F13801C8B200F029FF0DF8040093
:103C8000601CC4B2072CF4DD002405E01DF804001C
:103C900035490855601CC4B2072CF7DD3AA0FFF780
:103CA0009BFB6846FFF798FBFFF75BFC79E0FFF7AB
:103CB000B8FC05460A2D29D2DFE805F028050609DB
:103CC0000A161723242721E0FFF78FFF1EE01DE0CF
:103CD0002A480068002806DDFFF74EFC27480068E8
:103CE000401E2649086011E010E0244800680728BB
:103CF00006DAFFF757FC21480068401C1F4908609E
:103D000004E003E0FFF73AFF00E000BF00BF032D2F
:103D100047D10020194908602E201349C870382067
:103D200000F009FF104802F09BFBB0EE408A2FE044
:103D30000C000020312E503A000000000A00000064
:103D4000322E493A00000000332E443A00000000B1
:103D5000342E563A00000000352E72657475726E6E
:103D60000A000000C0040020D4040020DC0400206D
:103D700008000000200000003C2D0000E0040020AE
:103D8000CC040020085600000A342E563A000000E9
:103D9000F0EE608A51EC180B02F0E8FCFE49086076
:103DA00000E084E700BF03B0BDEC028B30BD30B54E
:103DB0002DED048B83B000208DF80800F7490870C2
:103DC000FFF7B7FB002408E004F13001C8B200F0AF
:103DD0007EFE0DF80400601CC4B2072CF4DD002444
:103DE00005E01DF80400EE490855601CC4B2072C1C
:103DF000F7DDECA0FFF7F0FA6846FFF7EDFAFFF702
:103E0000B0FB4CE0FFF70DFC05460A2D29D2DFE898
:103E100005F0280506090A161723242721E0FFF7D5
:103E2000E4FE1EE01DE0E1480068002806DDFFF723
:103E3000A3FBDE480068401EDC49086011E010E08A
:103E4000DA480068072806DAFFF7ACFBD7480068B5
:103E5000401CD649086004E003E0FFF78FFE00E055
:103E600000BF00BF032D1AD10020D04908602E20CA
:103E7000CB49C870302000F05EFEC94802F0F0FA6D
:103E8000B0EE409AF0EE609A51EC190B02F06EFC25
:103E900008EE100AB0EE480A00F0C4FF00E0B1E7F7
:103EA00000BF03B0BDEC048B30BD30B52DED048BED
:103EB00083B000208DF80800B8490870FFF739FB7F
:103EC000002408E004F10801C8B200F000FE0DF87B
:103ED0000400601CC4B2072CF4DD002405E01DF8CA
:103EE0000400AF490855601CC4B2072CF7DDB0A030
:103EF000FFF772FA6846FFF76FFAFFF732FB4CE004
:103F0000FFF78FFB05460A2D29D2DFE805F02805CB
:103F100006090A161723242721E0FFF766FE1EE094
:103F20001DE0A2480068002806DDFFF725FB9F483A
:103F30000068401E9D49086011E010E09B48006841
:103F4000072806DAFFF72EFB98480068401C9749BF
:103F5000086004E003E0FFF711FE00E000BF00BFCF
:103F6000032D1AD10020914908602E208C49C87079
:103F7000082000F0E0FD8A4802F072FAB0EE409AA4
:103F8000F0EE609A51EC190B02F0F0FB08EE100A0B
:103F9000B0EE480A00F042FF00E0B1E700BF03B016
:103FA000BDEC048B30BD30B52DED048B83B000200B
:103FB0008DF8080079490870FFF7BBFA002406E085
:103FC000E0B200F084FD0DF80400601CC4B2072CC0
:103FD000F6DD002405E01DF8040071490855601C59
:103FE000C4B2072CF7DD74A0FFF7F6F96846FFF7B7
:103FF000F3F9FFF7B6FA4CE0FFF713FB05460A2D7D
:1040000029D2DFE805F0280506090A161723242718
:1040100021E0FFF7EAFD1EE01DE06448006800288B
:1040200006DDFFF7A9FA61480068401E5F49086095
:1040300011E010E05D480068072806DAFFF7B2FAE1
:104040005A480068401C5949086004E003E0FFF743
:1040500095FD00E000BF00BF032D1AD10020534999
:1040600008602E204E49C870002000F064FD4C48C6
:1040700002F0F6F9B0EE409AF0EE609A51EC190BAE
:1040800002F074FB08EE100AB0EE480A00F0BEFE23
:1040900000E0B1E700BF03B0BDEC048B30BD10B54C
:1040A00047480078062811D2DFE800F0100306091F
:1040B0000C0FFFF778FF09E0FFF7F7FE06E0FFF7C8
:1040C00076FE03E0FFF7C8FD00E000BF00BF10BDB3
:1040D00010B53B480078052828DA39480078401C9C
:1040E0003749087000202D490870AFF27C30FFF787
:1040F00073F9AFF28430FFF76FF9AFF28830FFF752
:104100006BF9AFF29030FFF767F9FFF706FAAFF2FD
:10411000A030FFF761F9AFF2A830FFF75DF9AFF219
:10412000A830FFF759F901201C49087010BD70B57F
:104130002DED028B00269FED230A00F06BFEFFF7AA
:10414000EFFBA1E00A20FDF7D7FF1F48008800F42D
:10415000804058B11D481E490860084601681DA0EE
:10416000FEF7CFF80020184908800CE0002016491F
:10417000088004E000223046761C14490A54134893
:10418000805D0028F6D1012004490870FFF749FA44
:1041900004460A2C36D21FE0C40400200C00002084
:1041A000D40400200A332E443A000000E00400202A
:1041B0000A322E493A0000000A312E503A0000001F
:1041C000DC0400200000000044000020F004002077
:1041D000C004002025730A00DFE804F01405060976
:1041E0000C0D0E0F10130DE0FFF772FF0AE0FFF742
:1041F00056FF07E006E005E004E003E0FFF796FC69
:1042000000E000BF00BFFE480078052807D1032C5E
:1042100005D10120FA490870BDEC028B70BD032C5A
:104220000BD10020F74908700120F5490870FEF70E
:1042300002FEFFF77EF9FFF773FBFFF7F6FBF2488C
:104240000068007856281FD1FFF7DBFBEF493820C4
:1042500000F071FCED4802F003F9B0EE408AF0EE98
:10426000608A51EC180B02F081FA0546E8480560B7
:104270000020E44908700120E1490870FEF7DBFDE9
:10428000FFF757F9FFF74CFB5CE710B58AB0022047
:10429000DC49087000208DF824008DF818008DF896
:1042A0000C00002406E0E0B200F011FC07A908555C
:1042B000601CC4B2072CF6DD002408E004F10801FC
:1042C000C8B200F004FC04A90855601CC4B2072C55
:1042D000F4DD002408E004F13001C8B200F0F7FB7F
:1042E00001A90855601CC4B2072CF4DDFFF721F9C1
:1042F000AFF2C050FFF770F807A8FFF76DF8AFF204
:10430000C450FFF769F8AFF2C850FFF765F804A88A
:10431000FFF762F8AFF2DC50FFF75EF8AFF2D8506B
:10432000FFF75AF801A8FFF757F8AFF2F050FFF780
:1043300053F8B8A0FFF750F8B848FFF74DF8AFF2C0
:104340000460FFF749F8AFF2F050FFF745F8FEF7C9
:104350009CFCFFF7FBF80AB010BD2DE9F0410646C2
:104360000020A8490870FFF7E4F8ADA0FFF734F883
:104370001FED6C0AAC4880ED000A06EB8610800049
:104380004FF4B47190FBF1F4A74890ED000ABDEE34
:10439000C00A10EE105A1DE0A34890ED000ABDEED1
:1043A000C00A10EE105A00EE104AF8EEC00A00EEF5
:1043B000105AB8EEC00A00F039FD4742002F00DA6B
:1043C000002739469948FDF754F84FF4FA71984898
:1043D000FDF74FF8A542DFDD4FF4FA719348FDF782
:1043E00048F84FF4FA719248FDF743F801208449E8
:1043F0000870FFF79EF8FFF748FFBDE8F08110B5A1
:104400002DED068B00240A20FDF776FE89480088F2
:1044100000F4004060B188487B49086008460168A4
:10442000AFF25020FDF76DFF0020824908800AE0BE
:1044300004E000222046641C7F490A547E48005D47
:104440000028F6D10024704800680078502825D153
:10445000FFF7D7FA6D49002000F06DFB0A20FDF749
:104460004BFE6A4801F0FCFFB0EE40AAF0EE60AAF5
:1044700051EC1A0B02F07AF908EE100AB0EE480A75
:1044800000F0C4FC00205F49087001205C490870FE
:10449000FEF7D1FCFFF74DF8FFF7F7FE5A4800682A
:1044A0000078492822D1FFF7ACFA5849082000F0DB
:1044B00042FB564801F0D4FFB0EE40AAF0EE60AAED
:1044C00051EC1A0B02F052F908EE900AB0EE680AAD
:1044D00000F0A4FC00204B490870012048490870F6
:1044E000FEF7A9FCFFF725F8FFF7CFFE4648006866
:1044F0000078442822D1FFF784FA4449302000F0A4
:104500001AFB424801F0ACFFB0EE40AAF0EE60AA00
:1045100051EC1A0B02F02AF909EE100AB0EE490A22
:1045200000F080FC002037490870012034490870F1
:10453000FEF781FCFEF7FDFFFFF7A7FEBDEC068B43
:1045400010BD2DE9F04100202E490870FEF7F1FF63
:1045500030202E490870487088700020C87037A03D
:10456000FEF73AFFFEF7FDFFA4E0FFF75AF8044616
:104570000A2C29D2DFE804F0280506090A161723B9
:10458000242721E0FFF731FB1EE01DE02E480068E4
:10459000002806DDFEF7F0FF2B480068401E2A4980
:1045A000086011E010E028480068022806DAFEF7EB
:1045B000F9FF25480068401C2349086004E003E037
:1045C000FFF7DCFA00E000BF00BF032C72D100202F
:1045D0001D4908600D4800F0F8FC07469FED1B0AD6
:1045E000114880ED000A07EB871080004FF4B4718A
:1045F00090FBF1F60C4890ED000ABDEEC00A27E0F2
:10460000DC0400200C000020C0040020D4040020A2
:10461000C4040020342E41473A000000D00400209A
:104620000A342E4100000000E40400200044014050
:104630000048014044000020F00400200A342E41CC
:104640003A30303000000000E0040020000000009C
:1046500010EE105A20E07F4890ED000ABDEEC00A2F
:1046600010EE105A00EE106AF8EEC00A00EE105A72
:10467000B8EEC00A00F0DAFBC0F10008B8F1000F94
:1046800001DA4FF0000841467348FCF7F2FE4FF4A0
:10469000FA717248FCF7EDFEB542DCDD4FF4FA71B9
:1046A0006D48FCF7E6FE4FF4FA716C48FCF7E1FE4A
:1046B00001E0FFE759E700BFBDE8F08110B56848A9
:1046C0000078062811D2DFE800F0100306090C0F6D
:1046D000FFF769FC09E0FFF7E8FB06E0FFF767FB7F
:1046E00003E0FFF72EFF00E000BF00BF10BDF8B5EC
:1046F000002447F230505B49086000205A49087096
:104700004FF4FA715448FCF7B4FE4FF4FA71534871
:10471000FCF7AFFEFFF7B9FD9BE00020524908709F
:104720000A20FDF7E9FC5148008800F4804060B1A0
:104730004F485049086008460168AFF26850FDF7DD
:10474000E0FD0020494908800DE00020474908802D
:1047500005E000222046611CCCB245490A54444879
:10476000005D0028F5D1FEF75CFF05460A2D15D245
:10477000DFE805F0140506090C0D0E0F10130DE00F
:10478000FFF7A6FC0AE0FFF799FF07E006E005E067
:1047900004E003E0FFF7CAF900E000BF00BF3048C3
:1047A0000078052805D1032D03D101202C4908707C
:1047B000F8BD032D09D100202B490870012028499C
:1047C0000870FEF7B6FEFFF760FD4FF4FA7122485D
:1047D000FCF74FFE4FF4FA712048FCF74AFEFFF752
:1047E0000EFE244800680078612823D1002407E0E9
:1047F00020480168601C085C0DF80400601CC4B20D
:10480000022CF5DD684600F0E0FB064631461AA0B2
:10481000FDF777FD002017490968087015490968F8
:10482000487014490968887012490968C870304690
:10483000FFF793FD00200D49088005E00022204687
:10484000611CCCB20A490A540948005D0028F5D120
:10485000002462E7E40400200044014000480140D5
:10486000DC040020240800400C000020440000204C
:10487000F0040020C00400206B3D25640D0A0000F8
:104880001CB501210220FCF705FA4FF4407000909E
:1048900001208DF8040000208DF8060003208DF81B
:1048A000050001208DF807006946B148FBF754FF69
:1048B0000120B0490860B049C1F8A4021CBD10B580
:1048C000AB48006820F44020A94908600846006809
:1048D00040F4802008600120A649091D0860A6490F
:1048E000C1F8A0020420FDF7BFFB0020A149091D6B
:1048F00008600420FDF7B8FB00209F49C1F8A00222
:1049000010BD10B59A48006820F44020984908600E
:104910000846006840F4802008600020954908603F
:104920009549C1F8A4020420FDF79EFB012091499E
:1049300008609149C1F8A4020420FDF795FB10BD61
:1049400010B500248A48006820F440208849086097
:1049500008460068086001208649091D0860FDF7C7
:1049600083FB01208449C1F8A002FDF77DFB07E02D
:10497000601CC4B2FA2C03DDFFF7C3FF012010BD99
:104980007C487C3800680028F2D17A49086000BF72
:10499000F5E710B50020774908607548006820F4F5
:1049A0004020734908600846006840F48020086091
:1049B00000207149C1F8A4020220FDF755FB012037
:1049C0006C4908600220FDF74FFB00206A49C1F8DE
:1049D000A00210BD10B50020664908606448006858
:1049E00020F44020624908600846006840F48020B6
:1049F000086001206049C1F8A4020220FDF734FBE1
:104A000001205C4908600220FDF72EFB00205A4976
:104A1000C1F8A00210BD70B504465548006820F4E6
:104A20004020534908600846006840F48020086030
:104A3000002050490860002517E0E0094D49091D94
:104A400008606006040E0220FDF70EFB01204A49B3
:104A5000C1F8A0020220FDF707FB002045490860CD
:104A60000220FDF701FB681CC5B2082DE5DB70BD17
:104A700070B5054600243E48006820F440203C49BB
:104A80000860084600680860002616E000203949E2
:104A900008600220FDF7E8FA01203749C1F8A002BA
:104AA0006006040E33487C38006808B1601CC4B24C
:104AB0000120FDF7D9FA701CC6B2082EE6DB15B945
:104AC000FFF788FF01E0FFF764FF204670BD70B577
:104AD0000446FFF7F4FEA020FFF79DFFFFF730FF2D
:104AE0002046FFF798FFFFF72BFFFFF7E8FEA12016
:104AF000FFF791FFFFF724FF0120FFF7B9FF0546FD
:104B0000FFF7FFFE284670BD70B505460C46FFF75F
:104B1000D6FEA020FFF77FFFFFF712FF2846FFF722
:104B20007AFFFFF70DFF2046FFF775FFFFF708FF3D
:104B3000FFF7E7FE70BD70B506460D46FFF7BFFEF6
:104B4000A020FFF768FFFFF7FBFE3046FFF763FF8B
:104B5000FFF7F6FE002406E0285DFFF75CFFFFF795
:104B6000EFFE601CC4B2082CF6DBFFF7CAFE70BD76
:104B700000040240A08240420080404200B589B05B
:104B800001210420FCF7CFF801210220FCF782F874
:104B9000C020049002208DF8140000208DF816002B
:104BA0008DF8170003208DF8150004A93648FBF78F
:104BB000D3FD022206213448FBF759FE02220721C9
:104BC0003148FBF754FE0020ADF80400ADF80600B4
:104BD0004EF6602002900020ADF80C0001A92B4891
:104BE000FCF759FA0020ADF818000120ADF81C00C0
:104BF0000320ADF820000020ADF81A00ADF81E002B
:104C000006A92248FCF71EFE00231A4601211F4870
:104C1000FCF7B5FF01211D48FCF7F2FE012203213C
:104C20001A48FCF7D9FE1E208DF8000002208DF8EE
:104C3000010000208DF8020001208DF80300684675
:104C4000FBF799FC47F230501049243108600121EC
:104C50000E48FCF7A9FA09B000BD10B50C4890ED5C
:104C6000000AF7EE000A30EE200A80ED000A09483B
:104C7000006808B9012000E000200649086003210F
:104C80000248FCF7D1FE10BD0004024000080040BD
:104C9000E4040020A48242427FB505460C4601216F
:104CA0000220FCF740F80195A0B2ADF8000000200A
:104CB000ADF80800ADF8020069463D48FCF7EBF995
:104CC000012211463A48FCF787FE1D208DF80C00A2
:104CD00001208DF80F008DF80D0003208DF80E00D7
:104CE00003A8FBF748FC01213148FCF75DFA7FBDC2
:104CF00010B53048006808B9012000E000202D49B7
:104D000008602D48007801284CD12C48006800EE3E
:104D1000100AB8EE400A2A4880ED000A90ED000A19
:104D2000DFED280A30EE600A80ED000A90ED000AFF
:104D3000DFED250A80EE201AB2EE040A21EE000A09
:104D400080ED000A2148D0ED000A1D4890ED000AD0
:104D500000F06CF840421E4908600120FDF7CCF9D4
:104D60001B480068002803DC00201949086008E09F
:104D700017480068B0F5967F03DD4FF4967014492C
:104D800008600520FDF7B8F90D4890ED000AFDF721
:104D9000AAFF0F4801680F48FCF76BFB47F2305041
:104DA0000649086001210248FCF73EFE10BD0000E4
:104DB00000040040A88242420C0000202408004069
:104DC000E80400200060EA4600000244C404002019
:104DD000EC040020004401409FED2B0A2B4880ED9D
:104DE000000A9FED290A80ED010A9FED270A80ED58
:104DF000020A9FED250A80ED040A9FED230A80ED4B
:104E0000030A9FED210A80ED050A70471F4880EDD7
:104E1000000A70471D4880ED0A0A70471B4880ED64
:104E2000010A7047194880ED020A704770EEC01AF7
:104E30001648C0ED031AD0ED001A90ED032A61EE7A
:104E4000821A90ED012AD0ED042A42EE221A90ED4A
:104E5000052AD0ED022A42EE221AB0EE611AD0EDF8
:104E6000091A71EE811AC0ED091AD0ED041AC0EDCD
:104E7000051AD0ED031AC0ED041AD0ED091AFDEEA3
:104E8000E11A11EE900A704700000000C8050020EA
:104E900030B58BB004460D4601214804FBF754FFA2
:104EA00001212020FBF7F6FE4020019002208DF822
:104EB000080000208DF80A0001208DF80B00032067
:104EC0008DF8090001A93D48FBF746FC03220621A5
:104ED0003A48FBF7CCFCA8B2ADF80C000020ADF8C6
:104EE0000E000494ADF8140003A93548FCF7D3F87C
:104EF0006020ADF818000120ADF81A000220ADF8CE
:104F0000240006A92E48FCF75BF908212C48FCF781
:104F1000E4FA01212A48FCF729F901212848FCF785
:104F200043F90BB030BD30B58BB004460D460121BE
:104F30008804FBF709FF01212020FBF7ABFE80204E
:104F4000019002208DF8080000208DF80A00012051
:104F50008DF80B0003208DF8090001A91748FBF715
:104F6000FBFB032207211548FBF781FCA8B2ADF833
:104F70000C000020ADF80E000494ADF8140003A955
:104F80001048FCF788F86020ADF818000120ADF853
:104F90001A000220ADF8240006A90A48FCF710F90F
:104FA00008210848FCF799FA01210648FCF7DEF8C9
:104FB00001210448FCF7F8F80BB030BD00140240A2
:104FC0000044014000480140704770B5064600F0BB
:104FD0000DF80468054630460A22002100F068F802
:104FE0002C6070BD7047704770477047004870472D
:104FF000F405002010B5FFF7F9FF006810BD10B5EB
:105000000446FFF7F3FF046010BD00000FB4002357
:1050100000B589B00CA900910B99CB60214B7B4462
:105020000693214B7B44079304236FF00042CDE9A4
:1050300001321E4A7A446B4608920246002001F073
:10504000F1FD09B05DF814FB70B506464FF0FF3076
:1050500015460C46324686B00091CDE901016946FD
:105060000020049004A8FFF7D1FF024604982118FD
:1050700025B108B1084600E02046286004980028C1
:105080000DD0002A02DD0098884208D03246081B65
:1050900069460094CDE9010404A8FFF7B7FF06B004
:1050A00070BD000029010000410100000101000065
:1050B0002DE9F04791460F4680460446002614F835
:1050C000015B2DB100F030F80068405DC007F6D1FB
:1050D0002B2D02D02D2D18D0641E4A46394620466D
:1050E00000F053F827B13968A14201D1C7F8008018
:1050F0004FF0020471050BD54042002803DDFFF795
:1051000075FF0460A007BDE8F08746F48066E4E719
:105110000028F8DAFFF76AFF04606FF00040F2E75A
:1051200000487047F405002010B500F0A3F8001DFA
:1051300010BD00BF0D16000010B50446FFF7F4FFC8
:105140000068005D00F0010010BD426842B10168D6
:1051500011F8013B23B1521EC0E9001218467047F6
:105160000121C160881E704742685AB1C368016856
:1051700043B983688B4205D0491E521CC0E9001216
:10518000002070474FF0FF3070472DE9F05F8246F6
:1051900015468B4600270AF10104B94600783028ED
:1051A00001D09DB113E014F8010B0127782803D03A
:1051B000582801D045B10AE00DB1102D07D10027C4
:1051C00014F8010B102502E0082500E00A2500264E
:1051D000B0460EE005FB080005FB06F101271FFAAB
:1051E00080F801EB1046B6F5803F00D3B94614F8BD
:1051F000010B294600F042F80028EBDABBF1000F62
:1052000005D00FB1641E00E05446CBF80040B9F160
:10521000000F06D0FFF7EAFE02210160C81EBDE8BC
:10522000F09F48EA0640FAE77546FFF779FFAE4679
:1052300005006946534620F00700854618B020B5A2
:10524000FBF782F9BDE820404FF000064FF0000761
:105250004FF000084FF0000B21F00701AC46ACE81E
:10526000C009ACE8C009ACE8C009ACE8C0098D468B
:105270007047000000487047140600203A2800D20A
:10528000303820F02002412A01D3A2F137008842B1
:1052900001D34FF0FF3070472DE9FF4F064689B02C
:1052A0000878FF2806D0491C2D2805D000244FF08F
:1052B000000908E000200CE00124F8E709EB89036D
:1052C000491C00EB43090878FF28F7D114B1C9F154
:1052D00000008146107800252C46AA4629462D2834
:1052E00001D02B2804D1521C2D2813D00020824637
:1052F0008B461078FF280FD04FF0000C0A21521C6B
:10530000A5FB017804FB018105FB0C11C5194BEBD2
:105310000104EEE70120EAE7002108464FF0000013
:10532000BAF1000F02D000EB80004008C0F38158B2
:10533000B8F1010F01DD4FF0FF380C9809EB0007C1
:1053400055EA040009D04FF0020917F5FA7F0BDA8D
:105350004FEACA70C6E900B012E04FEACA70C6E967
:1053600000B00DB0BDE8F08FB7F5FA7F0DDDF04865
:105370007844D0E90010C6E9001040EACA707060B5
:10538000FFF734FEC0F80090EBE7391E02DAC8F1EF
:10539000000200E0424600DA794206A800F018FA5E
:1053A00006AB93E8070003AB83E8070044F23E0036
:1053B0005BEA04010090584604D144F21E012C46D9
:1053C0005D460091210C0904014306D10099240493
:1053D00044EA15442D041039009104F07F41014343
:1053E00006D10099240244EA15642D02083900917F
:1053F00004F07041014306D10099240144EA157478
:105400002D01091F009104F04041014306D100998C
:10541000A40044EA9574AD00891E009104F0004197
:10542000084304D100986D196441401E0090424623
:105430006846002FCDE9014503A902DD00F0D9FE41
:1054400001E000F0AEFEBAF1000F04460D4601D0B7
:1054500084F0004440F2FF7724F00040284303D05A
:10546000C4F30A50B84212D1FFF7C0FDC0F8009053
:10547000C4F30A50B8420AD1AE487844D0E90010CB
:10548000C6E9001004F000410843706069E7C6E90E
:10549000005466E72DE9FF4F1F464FF0000A4FF01A
:1054A000FF38454691B0D7E90146CDF83CA0FFF75B
:1054B000E1FEC0680168405C1090B96912986D1CEB
:1054C0008847396A814688470028F6D1B9F1FF3FFD
:1054D0000AD0002E24F4D06411DDB9F12B0F08D0CE
:1054E000B9F12D0F0BD102E0404615B03AE744F474
:1054F0008064B96912986D1C8847761E81466005E4
:1055000004A901D52D2000E02B20002E01F1010B74
:105510000DF130088DF810003FDDB9F1690F08D0AA
:10552000B9F1490F05D0B9F16E0F02D0B9F14E0FA4
:105530001CD13B4601A8009580E85002DDE912121B
:105540006FF0020001F072FBC11CCED10EE0B96910
:1055500012986D1C884781461398761E44F4007497
:1055600005600F98401C002E0F9016DDB9F1300F2A
:10557000EDD0B9F1780F02D0B9F1580F0DD10F98D5
:1055800001280AD13B46CDE90054DDE91212001F83
:10559000029601F049FBC11CA7D1109989453ED163
:1055A00044F0800406E01399681CAAF1010A44F44F
:1055B00000740860B9696D1C1298761E88473028FF
:1055C0008146F0D02BE01099894505D1200603D4FF
:1055D000761E44F0800418E0484601F04BF808B30A
:1055E000761E0DF123018B4544F4007408D2A9F115
:1055F00030000BF8010B200607D5AAF1010003E0EB
:10560000200602D40AF101008246A00502D51399B2
:10561000681C0860B96912986D1C88478146002E85
:10562000D1DC53E0002E51DDB9F1650F02D0B9F1A4
:10563000450F4BD1A00549D5B9696D1C1298761E4E
:1056400024F440748847002E81460CDD2B2804D0BA
:10565000B9F12D0F07D144F48074B96912986D1C0B
:105660008847761E8146E00501D52D2100E02B21DB
:1056700008F8011BCDF8008021E0761E0DF13901FC
:10568000884544F400740CD2A9F1300010F0FF00FA
:1056900088F8000002D10099884509D908F101086D
:1056A00006E0E00501D5244801E042F20F70824691
:1056B000B96912986D1C8847814613980560002EC1
:1056C00004DD484600F0D6FF0028D6D1F9691298CB
:1056D0008847FF2053468BF8000088F80000002020
:1056E0000A900B9004AA0CA90AA8FFF7D5FDA00503
:1056F00002D46FF00100F8E614F0240F0AD0E0079E
:1057000014D13868DDE90A12031D3B600068C0E966
:1057100000120BE00AA9684600F046FFE00705D139
:105720003868009A011D3960006802602846DCE68E
:10573000A019000096180000F1D8FFFF10B504462C
:10574000AFF300802046BDE81040FAF794BD00009A
:105750004FF0013C50F8042B51F8043B9A4221D100
:10576000A2EB0C03934313EACC1317D150F8042B8C
:1057700051F8043B9A4215D1A2EB0C03934313EA70
:10578000CC130BD150F8042B51F8043B9A4209D1A9
:10579000A2EB0C03934313EACC13DBD04FF00000D1
:1057A000704700BFD01A01BAB1FA81F101F01801B7
:1057B00022FA01F0CB40C1F12001DBB2C0B2C01A25
:1057C0002CFA01F3D11A914311EAC311E6D17047C3
:1057D0002DE9F047814616468AB0334878440DC813
:1057E0008DE80D0030487844801C03AC0DC884E877
:1057F0000D0041F69B300844372190FBF1F290FBFD
:10580000F1F5A5F1800501FB12041B3C02D56442B1
:10581000012000E00020DFF890A080460027FA4435
:10582000AAF1BE0A0DE0E00709D03246684607EB50
:1058300047010AEB810100F0C8FC8DE80700641005
:105840007F1C002CEFD1184F7F44AC3F18E0E807D5
:1058500014D007EB04100DF1180A90E80E008AE846
:105860000E00C068F04201D198190890324606A98E
:1058700003A800F0AAFC03AB83E807006D10641CCA
:10588000002DE4D132466946B8F1000F03A802D0DA
:1058900000F073FC01E000F098FCC9E90001C9F8D0
:1058A00008200AB0BDE8F087FC1400002DE9FF4F86
:1058B0001F464FF03C0987B04FF00042DDE914105D
:1058C00001F10108DDF858A002EA405003900020E1
:1058D00005908346054604460490B969461E08981B
:1058E0008847AAF1010A0290BAF1000F3BDD029845
:1058F0002E2815D01021FFF7C1FC00282EDB4FF019
:10590000010B0599014317D0B9F1000F0BDB4A4693
:10591000C11700F0F5F905430C43A9F1040905E0AE
:10592000012004900BE008B145F00105012005902D
:10593000049820B9361D02E0049800B1361FB969F9
:10594000089808F101088847BBF1000FAAF1010A85
:105950000290C9D00999C1F80080C5E70298702863
:1059600008D0502806D0F96908988847BBF1000F85
:1059700014D04FE0002002900120BBF1000F0490F2
:1059800009D0B969089808F101088847AAF1010906
:10599000B9F1000F07DCF969089888476FF001003A
:1059A0000BB0BDE8F08F2B2804D02D280CD14FF080
:1059B000FF300490B969089808F101088847A9F1F7
:1059C0000109B9F1000FE6DD411CE4D00A21FFF71F
:1059D00055FC0028DFDB029908F1010801EB810189
:1059E00000EB41000290B969089888470A21FFF747
:1059F00045FC099AA9F10109B9F1000FC2F800802C
:105A000001DD0028E7DAF9690898884704990298C7
:105A100000FB016655EA040004D004F0404109008F
:105A200002D006E0039898E0A40044EA9574AD0023
:105A3000B61E04F00041080002D16D196441761EC3
:105A4000159810F0240F03D04FF00B095C4803E0C9
:105A50004FF028096FF07D008246564507DAAAEB21
:105A600006018944B9F1410F01DD4FF041090120E0
:105A70000021A9F1010200F043F9024628400B463B
:105A80002140084301D0012100E00021501E029175
:105A900043F1FF3128402140084301D0012000E0BC
:105AA00000200299834651EA0B014FD0002108469D
:105AB0004FF00000039900F4400039B100EB800082
:105AC0004FF4400100EBD07001EA6000801501281E
:105AD00002DD4FF0FF3000E013D0401C36D00298BA
