:020000040800F2
:10000000980B0020F9050008CD030008CF03000875
:10001000D3030008D7030008DB030008000000003A
:10002000000000000000000000000000DF030008E6
:10003000E103000800000000E3030008E5030008F6
:10004000130600081306000813060008130600082C
:10005000130600081306000813060008130600081C
:10006000130600081306000813060008130600080C
:1000700013060008130600081306000813060008FC
:1000800013060008130600081306000813060008EC
:1000900013060008130600081306000813060008DC
:1000A00013060008130600081306000813060008CC
:1000B00013060008A14A00080B4A000813060008AE
:1000C00013060008130600081306000813060008AC
:1000D00013060008A14500081306000813060008CF
:1000E000130600081306000813060008130600088C
:1000F000130600081306000813060008130600087C
:10010000130600081306000813060008130600086B
:10011000130600081306000813060008130600085B
:10012000130600081306000813060008130600084B
:10013000130600081306000813060008130600083B
:10014000130600081306000813060008130600082B
:10015000130600081306000813060008130600081B
:10016000130600081306000813060008130600080B
:1001700013060008130600081306000813060008FB
:10018000130600081306000800F002F800F072F8E9
:100190000AA090E8000C82448344AAF10107DA45E2
:1001A00001D100F067F8AFF2090EBAE80F0013F0C2
:1001B000010F18BFFB1A43F001031847146C00002D
:1001C000346C00000A444FF0000C10F8013B13F0AF
:1001D000070408BF10F8014B1D1108BF10F8015BA0
:1001E000641E05D010F8016B641E01F8016BF9D193
:1001F00013F0080F1EBF10F8014BAD1C0C1B09D1EA
:100200006D1E58BF01F801CBFAD505E014F8016B5B
:1002100001F8016B6D1EF9D59142D6D370470000ED
:100220000023002400250026103A28BF78C1FBD8FF
:10023000520728BF30C148BF0B607047642904F0E3
:100240001386732904F0D886002070471FB506F086
:10025000EDFC05F037F804000020002106F098FAC4
:10026000401C60600020002106F07CFAE0601FBDA9
:1002700010B510BD05F001F81146FFF7E7FF00F0DB
:1002800009F805F083FA03B4FFF7F2FF03BC01F0AD
:10029000B9FF000010B52DED028B4FF4A06000F007
:1002A000CBF9A82001F02CFF4FF4E13001F0B8FFAA
:1002B00004F0BEF9002405E0E0B204F0E0FA3D49A4
:1002C0000855641C082CF7DB3A4806F0F1F8B0EE4C
:1002D000408AF0EE608A51EC180B06F06FFA36494E
:1002E0000860002407E004F10801C8B204F0C7FA6E
:1002F00030490855641C082CF5DB2E4806F0D8F868
:10030000B0EE408AF0EE608A51EC180B06F056FA17
:1003100029490860002407E004F13001C8B204F064
:10032000AEFA24490855641C082CF5DB214806F078
:10033000BFF8B0EE408AF0EE608A51EC180B06F080
:100340003DFA1D4908601D4890ED001A1C48D0ED8B
:10035000000A084690ED000A04F004FC03F062F87D
:1003600001F0B4FF532140F2F31004F075FC532167
:1003700040F2F31004F0BBFC4FF4FA71114801F0A5
:10038000DEF84FF4FA71104801F0D9F804F0CEFA13
:1003900042F2CF0140F2E73004F056FB02F0B7F929
:1003A000002002F0EEFA03F07DF90020BDEC028B94
:1003B00010BD00000D0000200000002008000020FB
:1003C000040000200044014000480140704700BF85
:1003D000FEE700BFFEE700BFFEE700BFFEE7704795
:1003E00070477047704700000CB5002001900090E6
:1003F0007648006840F480307449086000BF734854
:10040000006800F4003000900198401C01900098B2
:1004100018B90198B0F5A04FF1D16C48006800F40C
:10042000003010B10120009001E000200090009801
:10043000012846D165484030006840F0805063494B
:10044000403108606248006840F4404060490860FC
:100450005E48083000685D49083108600846006859
:1004600040F4004008600846006840F4A05008606E
:100470005848091F0860081F006840F08070091F75
:10048000086000BF5148006800F000700028F9D0F3
:1004900040F20570504908604C480830006820F070
:1004A00003004A49083108600846006840F002002D
:1004B000086000BF45480830006800F00C000828BC
:1004C000F8D10CBD10B54548006840F470004349B0
:1004D00008603E48006840F001003C490860002088
:1004E0003A4908310860394800683D4908403749B1
:1004F00008603C48091D0860081F006820F480203F
:10050000091F0860002031490C310860FFF76CFFBB
:100510004FF0006031498039086010BD70B500208F
:100520000022022300240221284D08352D6805F001
:100530000C0020B1042806D0082834D107E02A4D49
:100540002A4E356033E02A4D284E35602FE01F4D8E
:100550002D1D2D68C5F380541C4D2D1D2D6805F0F3
:100560003F0154B1224DB5FBF1F5184E361D3668EA
:10057000C6F3881605FB06F209E01B4DB5FBF1F545
:10058000124E361D3668C6F3881605FB06F20F4D6F
:100590002D1D2D68C5F301456D1C6B00B2FBF3F5F5
:1005A000124E356003E0104D104E356000BF00BFA5
:1005B000064D08352D68C5F303150E4E705D0B4DC5
:1005C0002D68C540094E356070BD000000380240FE
:1005D0000070004008544007003C024088ED00E0F5
:1005E000FFFFF6FE103000240024F4001800002065
:1005F00000127A001C000020094880470948004783
:10060000FEE7FEE7FEE7FEE7FEE7FEE7FEE7FEE7C2
:10061000FEE7FEE704480549054A064B704700001F
:10062000C50400088901000898050020980B0020E7
:10063000980700209807002032490143324A116090
:10064000704770B5002100230F22C4781CB32E4CD4
:10065000246804F4E064C4F5E064C4F30721C1F144
:100660000404E3B20A4144789C40E1B28478144027
:1006700021430C07210E254C05786155047804F0C0
:100680001F050124AC4005786D11AD0005F1E02592
:10069000C5F8004109E0047804F01F050124AC40CE
:1006A0001B4D0678761145F8264070BD194A0A4060
:1006B0000243154B1B1F1A60704739B1124A121DB5
:1006C00012680243104B1B1D1A6006E00E4A121DF1
:1006D000126882430C4B1B1D1A607047042808D116
:1006E0004FF0E021096941F004014FF0E02211616F
:1006F00007E04FF0E021096921F004014FF0E0220A
:10070000116170470000FA050CED00E000E400E024
:1007100080E100E080FFFF1F10B504469848844246
:1007200008D10121084600F086FB0021012000F0DD
:1007300082FB76E09348844208D10121022000F038
:100740007AFB0021022000F076FB6AE08E488442AA
:1007500008D10121042000F06EFB0021042000F0EC
:100760006AFB5EE08948844208D10121082000F03C
:1007700062FB0021082000F05EFB52E084488442C6
:1007800008D10121102000F056FB0021102000F0BC
:1007900052FB46E07F48844208D10121202000F02E
:1007A0004AFB0021202000F046FB3AE07A488442D0
:1007B00008D10121402000F03EFB0021402000F044
:1007C0003AFB2EE07548844208D10121802000F0D8
:1007D00032FB0021802000F02EFB22E07048844292
:1007E00008D10121801500F026FB0021A01500F0A2
:1007F00022FB16E06B48844208D10121401500F02D
:100800001AFB0021601500F016FB0AE066488442DE
:1008100007D10121001500F00EFB0021201500F08A
:100820000AFB10BDF0B50A4600210023002400BFDA
:100830003DE0012505FA01F3156805EA03049C4231
:1008400034D105684F000326BE40B54305601579D5
:100850004E00B5400668354305601579012D02D07C
:100860001579022D16D185684F000326BE40B54389
:10087000856055794E00B54086683543856045688A
:1008800001268E40B5434560456896798E40B6B2E4
:1008900035434560C5684F000326BE40B543C5607B
:1008A000D5794E00B540C6683543C560491C10294E
:1008B000BFD3F0BD4FF6FF7101600021017141719E
:1008C0008171C171704708B54FF480320092009A6F
:1008D0000A430092009AC261C161009AC261C26972
:1008E0000092C269009208BD0246002013690B40C5
:1008F0000BB1012000E0002070470146086980B27A
:1009000070470246002053690B400BB1012000E004
:10091000002070470146486980B2704701837047E4
:10092000418370470AB1018300E041837047416110
:10093000704742694A4042617047F0B50023002485
:100940004D07ED0E02FA05F3CE1000F1200555F823
:1009500026504E07F70E0F26BE40B543CF1000F1CC
:10096000200646F82750CE1000F1200555F82650F5
:1009700045EA0304CE1000F1200545F82640F0BDFD
:10098000000002400004024000080240000C024047
:10099000001002400014024000180240001C0240F7
:1009A000002002400024024000280240F94800686C
:1009B00040F00100F74908600020F649083108605E
:1009C000F4480068F4490840F2490860F348091DFA
:1009D0000860F348EF4984310860F0481038091D79
:1009E0000860EC48006820F48020EA490860002094
:1009F000E8490C310860E7498C31086070470021F4
:100A0000E44A921C117011460870704710B50146F7
:100A10000022002300204A11012A02D1DD4C236864
:100A200008E0022A03D1DB4C7034236802E0D94C81
:100A30007434236801F01F02012494401C400CB15F
:100A4000012000E0002010BD38B5002000900024F7
:100A5000002500BF3120FFF7D9FF05460098401C54
:100A600000900098B0F5A04F01D0002DF2D03120B9
:100A7000FFF7CCFF08B1012400E00024204638BD78
:100A800001460020C34A106820F0F80040EAC10087
:100A900010607047C349086070470021BD4A70323A
:100AA00011701170012802D004280AD104E001213C
:100AB000B84A7032117005E00521B64A70321170E3
:100AC00000E000BF00BF7047B7490860704770B5CD
:100AD000049C41EA82150126C6EB530645EA064509
:100AE000054345EA0465AB4E361D356070BDAD4922
:100AF00008667047820142EA0172A64B84331A608D
:100B00007047A8498866704710B5830143EA0163BE
:100B100043EA02739F4C8834236010BDA1490867E3
:100B20007047A049C864704702460020994B0833BB
:100B3000186820F0EC6042EA01031843954B083333
:100B40001860704702460020924B0833186820F066
:100B5000784042EA010318438E4B0833186070470F
:100B6000014600208B4A0832106820F00300084339
:100B70001060704787480830006800F00C0070472C
:100B800001460020834A0832106820F0F000084334
:100B900010607047014600207E4A0832106820F439
:100BA000E05008431060704701460020794A08323F
:100BB000106820F4604040EAC10010607047F0B552
:100BC000002100220024022500260223714F08374D
:100BD0003F6807F00C0121B1042905D0082937D15D
:100BE00005E0724F076036E0714F076033E0694FF0
:100BF0003F1D3F68C7F38056664F3F1D3F6807F0B3
:100C00003F036EB16A4FB7FBF3F7DFF888C10CF111
:100C1000040CDCF800C0CCF3881C07FB0CF40CE0DF
:100C2000624FB7FBF3F7DFF86CC10CF1040CDCF892
:100C300000C0CCF3881C07FB0CF4564F3F1D3F68E7
:100C4000C7F301477F1C7D00B4FBF5F7076002E0A6
:100C5000564F076000BF00BF4E4F08373F6807F090
:100C6000F0010909534F7A5C0768D7404760494F44
:100C700008373F6807F4E051890A4E4F7A5C4768AD
:100C8000D7408760434F08373F6807F46041490BFE
:100C9000484F7A5C4768D740C760F0BD002100F438
:100CA0004072B2F5407F0AD13A4A0832116821F405
:100CB000F811414A02401143364A08321160354A60
:100CC00070321268C0F30B031A43324B70331A6050
:100CD00070473549443908607047334940390860E6
:100CE000704736490860704701460020294A8C3217
:100CF000106820F01F004A1E1043264A8C321060F4
:100D0000704701460020234A8C32106820F4F850C6
:100D10004A1E40EA02201F4A8C321060704701468A
:100D200000201C4A8C32106820F4401008431060E8
:100D3000704701460020174A8C32106820F44000AA
:100D400008431060704701460020124A8C32106838
:100D500020F440300843106070471949086070471C
:100D600039B10C4A3032126802430A4B30331A60F0
:100D700006E0084A303212688243064B30331A606C
:100D80007047F9B1034A343212680243014B3433DD
:100D90001A601CE000380240FFFFF6EA1030002421
:100DA0000030002000004742800E47420024F4003B
:100DB00000127A002C000020FFFCFF0F5C0147426C
:100DC000E01147428F4A126882438E4B1A60704787
:100DD00039B18C4A121D126802438A4B1B1D1A60DE
:100DE00006E0884A121D12688243864B1B1D1A605A
:100DF000704739B1834A0C3212680243814B0C337D
:100E00001A6006E07F4A0C32126882437D4B0C3335
:100E10001A60704739B17B4A103212680243794B2D
:100E200010331A6006E0774A103212688243754B1D
:100E300010331A60704739B1724A243A126802437B
:100E4000704B243B1A6006E06E4A243A12688243D3
:100E50006C4B243B1A60704739B16A4A203A1268D9
:100E60000243684B203B1A6006E0664A203A12684B
:100E70008243644B203B1A60704739B1614A1C3A87
:100E8000126802435F4B1C3B1A6006E05D4A1C3A45
:100E9000126882435B4B1C3B1A60704739B1594A58
:100EA000143A12680243574B143B1A6006E0554A45
:100EB000143A12688243534B143B1A60704739B19D
:100EC000504A103A126802434E4B103B1A6006E03B
:100ED0004C4A103A126882434A4B103B1A607047E2
:100EE00039B1484A1C3212680243464B1C331A601F
:100EF00006E0444A1C3212688243424B1C331A609B
:100F0000704739B13F4A2032126802433D4B2033CB
:100F10001A6006E03B4A203212688243394B203384
:100F20001A60704739B1374A243212680243354B90
:100F300024331A6006E0334A243212688243314B6C
:100F400024331A60704739B12E4A2C32126802439A
:100F50002C4B2C331A6006E02A4A2C32126882434A
:100F6000284B2C331A60704739B1264A3032126848
:100F70000243244B30331A6006E0224A30321268B2
:100F80008243204B30331A607047012808D11D4935
:100F90003C31096841F008011A4A3C32116007E00F
:100FA00018493C31096821F00801164A3C321160A9
:100FB000704739B1134A273A12780243114B273B45
:100FC0001A7006E00F4A273A127882430D4B273BEE
:100FD0001A7070470B484030006840F08070094933
:100FE00040310860704701460020064A283A1268DE
:100FF0000A400AB1012000E000207047014926396B
:10100000087070473438024010B50446FE488442E8
:1010100008D101210846FFF752FF00210120FFF708
:101020004EFF9DE0B4F1804F08D101210846FFF743
:1010300035FF00210120FFF731FF91E0F3488442A2
:1010400008D101210220FFF729FF00210220FFF72C
:1010500025FF85E0EE48844208D101210420FFF7F6
:101060001DFF00210420FFF719FF79E0E9488442C1
:1010700008D101210820FFF711FF00210820FFF708
:101080000DFF6DE0E448844208D101211020FFF7F4
:1010900005FF00211020FFF701FF61E0DF488442D7
:1010A00008D101212020FFF7F9FE00212020FFF7C1
:1010B000F5FE55E0DA48844208D101210220FFF70D
:1010C000FEFE00210220FFF7FAFE49E0D5488442E7
:1010D00009D101210804FFF7F2FE00214FF480300E
:1010E000FFF7EDFE3CE0D048844209D101214804DD
:1010F000FFF7E5FE00214FF40030FFF7E0FE2FE0A0
:10110000CA48844209D101218804FFF7D8FE002192
:101110004FF48020FFF7D3FE22E0C548844208D177
:1011200001214020FFF7BAFE00214020FFF7B6FE64
:1011300016E0C048844208D101218020FFF7AEFEAE
:1011400000218020FFF7AAFE0AE0BB48844207D1B5
:1011500001218015FFF7A2FE0021A015FFF79EFEDA
:1011600010BD00220288A84B98420ED0AC4B98428A
:101170000BD0B0F1804F08D0A44B984205D0A44BBF
:10118000984202D0A34B984204D14FF68F731A4075
:101190004B881A43A04B984207D0A04B984204D0EA
:1011A0004FF6FF431A400B891A4302804B68C36213
:1011B0000B880385944B984202D0994B984201D1F9
:1011C0008B7A03860123838270474FF0FF314160A1
:1011D00000210180018141808172704701858282F6
:1011E00070470A46002101884FF68F73194011435A
:1011F0000180704741627047C16270470146486A8A
:1012000070470146088D704721B1028842F0020202
:10121000028004E002884FF6FD731A400280704796
:1012200021B1028842F00402028004E002884FF6F5
:10123000FB731A400280704721B1028842F080029D
:10124000028004E002884FF67F731A4002807047E4
:1012500002884FF6F7731A40028002880A43028020
:10126000704702884FF6FF431A40028002880A4303
:101270000280704721B1028842F00102028004E03E
:1012800002884FF6FE731A400280704770B5002442
:1012900000220023058C4FF6FE7635400584028C33
:1012A0008388048B4FF68F752C40B51E2C400D881B
:1012B0002C43751E2A408D892A434D882A43524D5E
:1012C000A84202D0564DA84213D14FF6F7752A40D6
:1012D000CD892A434FF6FB752A408D882A434FF665
:1012E000FF652B404FF6FF552B400D8A2B434D8A4F
:1012F0002B43838004838D684563028470BD70B581
:10130000002400220023058C4FF6EF76354005843B
:10131000028C8388048B48F6FF752C404FF6FF45FE
:101320002C400D884FF6FF7606EA05252C434FF634
:10133000DF752A408D8906EA05152A434D8806EA9D
:1013400005152A43304DA84202D0354DA8421DD183
:101350004FF67F752A40CD894FF6FF7606EA0515D0
:101360002A434FF6BF752A408D8806EA05152A43A1
:101370004FF6FF352B404FF2FF752B400D8A06EAE2
:1013800085052B434D8A06EA85052B43838004831C
:101390008D688563028470BD70B50024002200232F
:1013A000058C4FF6FF6635400584028C8388848B5C
:1013B0004FF68F752C404FF6FC752C400D882C4352
:1013C0004FF6FF552A408D894FF6FF7606EA052530
:1013D0002A434D8806EA05252A430B4DA84202D030
:1013E0000F4DA84238D14FF2FF752A40CD894FF6F4
:1013F000FF7606EA05252A434FF6FF352A408D88F9
:1014000006EA05252A4319E00000014000040040D7
:1014100000080040000C0040001000400014004094
:1014200000040140004001400044014000480140E8
:1014300000180040001C0040002000404EF6FF75E0
:101440002B404DF6FF752B400D8A06EA05152B4300
:101450004D8A06EA05152B43838084838D68C56316
:10146000028470BD70B5002200230024058C4EF666
:10147000FF7635400584038C8488828B48F6FF759F
:101480002A404FF6FF452A400D884FF6FF7606EAC0
:1014900005252A434DF6FF752B408D8906EA053553
:1014A0002B434D8806EA05352B43FE4DA84202D05A
:1014B000FD4DA84208D14BF6FF752C400D8A4FF622
:1014C000FF7606EA85152C43848082838D68056447
:1014D000038470BD00210180418081808160818111
:1014E000C18101824182704770B50346002000240B
:1014F0001846183001258D40ACB21D8CA5431D84C3
:1015000009B108290AD100EB610005684FF68F7612
:10151000354005600568154305600FE00D1FC5F3F4
:101520004E052844056848F6FF7635400560056895
:101530004FF6FF7606EA02263543056070BD41632B
:10154000704781637047C1637047016470470A4602
:101550000021018B4FF68F731940114301837047AF
:101560000A460021018B48F6FF7319404FF6FF73BE
:1015700003EA02231943018370470A460021818B45
:101580004FF68F7319401143818370470A4600213B
:10159000818B48F6FF7319404FF6FF7303EA02236D
:1015A0001943818370470A460021018B4FF6F77378
:1015B00019401143018370470A460021018B4FF205
:1015C000FF7319404FF6FF7303EA022319430183A7
:1015D00070470A460021818B4FF6F773194011437B
:1015E000818370470A460021818B4FF2FF731940B7
:1015F0004FF6FF7303EA02231943818370470A46BB
:101600000021018B4FF6FB73194011430183704792
:101610000A460021018B4FF6FF3319404FF6FF7346
:1016200003EA02231943018370470A460021818B94
:101630004FF6FB7319401143818370470A4600211E
:10164000818B4FF6FF3319404FF6FF7303EA0223F5
:101650001943818370470A460021018B4FF67F733F
:1016600019401143018370470A460021018BC1F3E1
:101670000E014FF6FF7303EA0223194301837047FB
:101680000A460021818B4FF67F73194011438183F5
:1016900070470A460021818BC1F30E014FF6FF739C
:1016A00003EA02231943818370470A460021018C13
:1016B0004FF6FD7319401143018470470A4600211B
:1016C000018C4FF6F77319401143018470470A46A5
:1016D0000021018C4FF6DF7319404FF6FF7303EAC8
:1016E00002131943018470470A460021018C4FF60A
:1016F0007F7319404FF6FF7303EA02131943018405
:1017000070470A460021018C4FF6FF5319404FF6EF
:10171000FF7303EA02231943018470470A4600213C
:10172000018C4FF2FF7319404FF6FF7303EA022357
:101730001943018470470A460021018C4DF6FF735E
:1017400019404FF6FF7303EA0233194301847047CF
:1017500030B5002301248C40A3B2048C9C43048444
:10176000048C02FA01F5ADB22C43048430BD30B5CF
:10177000002304248C40A3B2048C9C430484048C76
:1017800002FA01F5ADB22C43048430BD828B4FF2D6
:10179000FF331A408283828B4FF6FF7303EA0123E3
:1017A0001A4382837047F0B50C461546002100228B
:1017B0000026078C4EF6FF7C07EA0C070784818B16
:1017C000028C4FF6FF7707EA043640F6FF473940B0
:1017D0004FF6FF7707EA052739434FF6FF7707EA09
:1017E0000337394345F6FF773A4046F480573A438A
:1017F00081830284F0BD828B4FF6F3731A4082839B
:10180000828B0A4382837047F0B50C46154600214F
:1018100000220026078C4FF6FF6C07EA0C070784AE
:10182000818B028C4FF6FF7707EA04264FF60C7780
:1018300039404FF6FF7707EA03172F4339434FF23A
:10184000FF573A4046F480773A4381830284F0BDE3
:10185000028B4FF2FF331A400283028B4FF6FF7365
:1018600003EA01231A4302837047F0B50C4615467C
:10187000002100220026078C4FF6EF7C07EA0C07B8
:101880000784018B028C4FF6FF7707EA041640F6B7
:10189000FF4739404FF6FF7707EA033739434FF6E2
:1018A000FF7703E0000001400004014007EA05273C
:1018B00039434FF65F773A4046F010073A430183C9
:1018C0000284F0BD028B4FF6F3731A400283028B41
:1018D0000A4302837047F0B50C46154600210022EA
:1018E000068C4FF6FE773E400684018B028C4FF645
:1018F0000C7631407E1C06EA03162E4331434FF628
:10190000F576324044F00106324301830284F0BD93
:1019100070B505460C46208850B92389A288618895
:101920002846FFF7D8FFE1882846FFF7CBFF25E0E0
:10193000208804280AD12389A28861882846FFF7D5
:1019400094FFE1882846FFF783FF17E020880828E6
:101950000AD12389A28861882846FFF755FFE188CC
:101960002846FFF748FF09E02389A28861882846B6
:10197000FFF719FFE1882846FFF708FF70BD002137
:1019800001804180012181800021C1800181704757
:101990002DE9F04105460C4600260127608808B96C
:1019A000022600E00026A088012801D1022700E0DD
:1019B00001272088A0B92389A28861882846FFF7DB
:1019C0008AFFE1882846FFF77DFF23893A463146A2
:1019D0002846FFF74AFFE1882846FFF739FF13E062
:1019E0002389A28861882846FFF73FFFE1882846BF
:1019F000FFF72EFF23893A4631462846FFF76BFF53
:101A0000E1882846FFF75EFFBDE8F0810146486B9C
:101A100070470146886B70470146C86B70470146A6
:101A2000086C70470A884B881A438B881A43CB8806
:101A30001A430B891A434B891A438B891A43A0F81E
:101A4000442070470021018041808180C180018154
:101A500041818181704731B1B0F8442042F40042A5
:101A6000A0F8442005E0B0F84420C2F30E02A0F82C
:101A70004420704721B1828842F00402828004E051
:101A800082884FF6FB731A408280704721B18288AA
:101A900042F00102828004E082884FF6FE731A4011
:101AA000828070471AB183890B43838102E0838966
:101AB0008B43838170478182704702460020138ADE
:101AC0000B400BB1012000E000207047CA430282A6
:101AD000704730B50246002000230024158A05EA2D
:101AE0000103958905EA010413B10CB1012000E05E
:101AF000002030BDCA430282704741EA0203A0F8C9
:101B0000483070471AB183890B43838102E083898F
:101B10008B438381704721B1828842F00802828022
:101B200004E082884FF6F7731A408280704701897B
:101B30004FF6F8721140018170470A460021018971
:101B40004FF68F73194011430181704730B5044639
:101B50000D4629462046FFF7F0FF208940F0070098
:101B6000208130BD2DE9F04104460D4616461F4642
:101B7000602D06D13B46012231462046FFF775FE17
:101B800005E03B46012231462046FFF7A4FE2946E8
:101B90002046FFF7D2FF208940F007002081BDE8F2
:101BA000F08130B50C4600210189C9B24FF6FF75AE
:101BB00005EA0325154325432943018130BD2DE95D
:101BC000F04105460E4617469846002443463A46DD
:101BD00031462846FFF7E5FF2C894FF6F8700440A0
:101BE00044F007044FF68F70044044F070042C81D9
:101BF000BDE8F081F0B504460D4616461F463B464B
:101C0000324629462046FFF7CCFF208940F4804029
:101C10002081F0BD82884FF68F731A4082808288BF
:101C20000A438280704702894FF6F8731A40028196
:101C300002890A430281704702894FF67F731A4076
:101C4000028102890A4302817047F0B50C461546AD
:101C50001E460021002200230189028B038C4FF6CF
:101C6000F877394021434FF6FC473A4040F20117DC
:101C70003A434FF6DD773B404FF6FF7707EA06170A
:101C80002F433B43018102830384F0BD21B182884D
:101C900042F08002828004E082884FF67F731A400F
:101CA00082807047A0F850107047000010B50446BD
:101CB000FA48844208D101211020FFF700F90021E1
:101CC0001020FFF7FCF857E0F548844209D10121C4
:101CD0004804FFF7E3F800214FF40030FFF7DEF887
:101CE0004AE0F048844209D101218804FFF7D6F880
:101CF00000214FF48020FFF7D1F83DE0EA4884420C
:101D000009D10121C804FFF7C9F800214FF40020D0
:101D1000FFF7C4F830E0E548844209D10121080505
:101D2000FFF7BCF800214FF48010FFF7B7F823E06D
:101D3000DF48844208D101212020FFF7C0F80021AC
:101D40002020FFF7BCF817E0DA48844209D10121CE
:101D50008807FFF7A3F800214FF08040FFF79EF8B7
:101D60000AE0D548844207D101214005FFF796F8E3
:101D700000216005FFF792F810BD2DE9FF470546E9
:101D80000E460024A14600BFA046B08900B100BFA6
:101D90002C8A24F44054F08804432C82AC8941F20C
:101DA0000C608443B0883189084371890843044337
:101DB000AC81AC8A24F44074B0890443AC82684698
:101DC000FEF7FDFEB548854202D0B948854202D1F2
:101DD000DDF80C9001E0DDF80890A88900F40040DF
:101DE00040B109EBC90000EB091031684900B0FBB4
:101DF000F1F707E009EBC90000EB09103168890031
:101E0000B0FBF1F76420B7FBF0F004012009642176
:101E100001FB1078A88900F4004040B1322000EBAB
:101E2000C800B0FBF1F000F00700044308E03220E6
:101E300000EB08106421B0FBF1F000F00F00044348
:101E40002C81BDE8FF874FF416510160002181808D
:101E5000C18001810C21418100218181704710B531
:101E600002460020108A20F470600B884C882343BF
:101E70008C882343CC8823431843108210BD002153
:101E8000018041808180C180704721B1828942F404
:101E90000052828104E082894DF6FF731A408281EC
:101EA0007047028B02F47F420283028B0A43028353
:101EB000704721B1828942F40042828103E0828925
:101EC000C2F30E028281704721B1828A42F400621D
:101ED000828204E0828A4FF2FF731A408282704746
:101EE000C1F308028280704701468888C0F3080069
:101EF0007047028A4FF6F0731A400282028A0A4340
:101F00000282704721B1828942F00202828104E09C
:101F100082894FF6FD731A408281704782894FF2A1
:101F2000FF731A40828182890A4382817047028A44
:101F30004FF6DF731A400282028A0A430282704718
:101F400021B1028A42F48042028204E0028A4BF606
:101F5000FF731A4002827047818941F0010181813B
:101F6000704721B1828A42F00802828204E0828AAC
:101F70004FF6F7731A4082827047028BD2B2028307
:101F8000028B42EA01220283704721B1828A42F029
:101F90002002828204E0828A4FF6DF731A40828236
:101FA000704721B1828A42F01002828204E0828A64
:101FB0004FF6EF731A4082827047828A4FF6FB73A6
:101FC0001A408282828A0A438282704721B1828AC1
:101FD00042F00202828204E0828A4FF6FD731A40C8
:101FE000828270471AB1838A0B43838202E0838A1C
:101FF0008B4383827047F0B50346002400260025FA
:10200000002040F66A17B94200D100BF1846C1F35C
:10201000421401F01F06012707FA06F5012C01D131
:102020000C3004E0022C01D1103000E014301AB161
:1020300007682F43076002E00768AF430760F0BD01
:1020400002460020B1F5007F00D100BF13880B408D
:102050000BB1012000E00020704701F40072B2F5DE
:10206000007F00D100BFCA430280704770B50246AE
:10207000002400230025002040F66A16B14200D15A
:1020800000BFC1F3421501F01F03012606FA03F356
:10209000012D13D19689334017E000000010014054
:1020A0000044004000480040004C00400050004008
:1020B0000014014000780040007C0040022D02D155
:1020C000168A334001E0968A33400C12012606FA44
:1020D00004F41688344013B10CB1012000E0002054
:1020E00070BD10B50022002340F66A14A14200D151
:1020F00000BF0A1201249440A3B2DC43048010BD47
:1021000010B504466FF00400FEF7E8FAE11704EB9F
:102110005171C1F3C701394A11701046007800EBC4
:102120004001C1EBC0104FF6FF7101EAC000344915
:10213000088010BD0146314A12784A434FF0E0232F
:102140005A6100229A611A46126942F001021A612C
:1021500000BF4FF0E022106900F001021AB100F454
:102160008032002AF5D04FF0E022126922F00102FD
:102170004FF0E0231A6100229A6170470146204A1D
:1021800012884A434FF0E0235A6100229A611A46AE
:10219000126942F001021A6100BF4FF0E02210699B
:1021A00000F001021AB100F48032002AF5D04FF09D
:1021B000E022126922F001024FF0E0231A610022AE
:1021C0009A61704770B504464FF4077094FBF0F0C5
:1021D000C6B24FF4077094FBF0F100FB114085B2DA
:1021E00005E04FF40770FFF7C9FF701EC6B2002E5E
:1021F000F7D115B12846FFF7C1FF70BD3C000020A4
:102200003E000020014600BF704700BF2D4A1288E3
:1022100002F04002002AF9D0C2B22A4B9A807047DD
:1022200010B588B0044601210846FEF799FD01214A
:102230001020FEF7EFFD072209212348FEF77DFB62
:1022400007220A212048FEF778FB4FF4C060069071
:1022500002208DF81C008DF81D0000208DF81E0056
:1022600001208DF81F0006A91748FEF7DBFA02943B
:102270000020ADF80C00ADF80E00ADF81000ADF880
:1022800014000C20ADF8120002A90E48FFF775FDEE
:1022900001210C48FFF7F9FD012240F225510948C0
:1022A000FFF7A9FE25208DF8040000208DF8050019
:1022B0008DF8060001208DF8070001A8FEF7C1F98E
:1022C00008B010BD0010014000000240DB4800686B
:1022D00040F02000D9490860D948006820F0030088
:1022E000D74908600846006840F001000860D448FB
:1022F0000830006820F00300D14908310860084622
:10230000006840F002000860081D006820F003002B
:10231000091D08600846006840F001000860C848D0
:10232000001D006820F00100C549091D086008462D
:1023300000680860C2481430006840F00100C049DD
:1023400014310860BE48006820F00C00BC490860E9
:102350000846006840F004000860B948083000688A
:1023600020F00C00B649083108600846006840F0CB
:1023700008000860081D006820F00C00091D0860B6
:102380000846006840F004000860AD48001D006881
:1023900020F00200AA49091D08600846006808608C
:1023A000A7481430006840F00200A54914310860C5
:1023B000A348006820F03000A14908600846006882
:1023C00040F0100008609E480830006820F030009F
:1023D0009B49083108600846006840F0200008600A
:1023E000081D006820F03000091D086008460068DC
:1023F00040F0100008609248001D006820F00400C2
:102400008F49091D08600846006808608C48143030
:10241000006840F004008A49143108608848006868
:1024200020F0C000864908600846006840F040007F
:10243000086083480830006820F0C00080490831F7
:1024400008600846006840F080000860081D0068C9
:1024500020F0C000091D08600846006840F04000F8
:1024600008607748001D006820F008007449091DC5
:10247000086008460068086071481430006840F041
:1024800008006F49143108606D48006820F44070FE
:102490006B4908600846006840F48070086068482E
:1024A0000830006820F4407065490831086008462B
:1024B000006840F400700860081D006820F4407057
:1024C000091D08600846006840F4807008605C4898
:1024D000001D006820F010005949091D08600846D9
:1024E0000068086056481430006840F010005449F5
:1024F000143108605248006820F440605049086078
:102500000846006840F4806008604D480830006864
:1025100020F440604A49083108600846006840F4E9
:1025200000600860081D006820F44060091D086014
:102530000846006840F4806008604148001D00685B
:1025400020F020003E49091D086008460068086028
:102550003B481430006840F02000394914310860CD
:102560003748006820F44020354908600846006874
:1025700040F48020086032480830006820F4402091
:102580002F49083108600846006840F400200860C0
:10259000081D006820F44020091D086008460068F6
:1025A00040F4802008602648001D006820F4007078
:1025B0002349091D08600846006808602048143057
:1025C000006840F400701E49143108601C4800681F
:1025D00020F440101A4908600846006840F4801052
:1025E000086017480830006820F44010144908318A
:1025F00008600846006840F400100860081D006884
:1026000020F44010091D08600846006840F480105E
:1026100008600B48001D006820F480600849091D0F
:10262000086008460068086005481430006840F4F7
:102630008060034914310860704700003038024060
:10264000001402400021082115E000F080021AB1B8
:102650000122FB4B1A6002E00022F94B1A600022B3
:10266000F74B1B1F1A600122F64BC3F8802242066B
:10267000100E4A1ED1B20029E7DC704710B50020C9
:10268000EF490C3108606420FFF79CFD0120ED4903
:10269000C1F890026420FFF795FD10BD10B5044607
:1026A0000020E749091D0860E649C1F88C02204670
:1026B000FFF7C8FF0120E249091D086010BD10B5F1
:1026C00004460020DE49091D08600120DD49C1F8EB
:1026D0008C022046FFF7B6FF0120D949091D08608A
:1026E00010BD10B504460020D549091D0860012021
:1026F000D449C1F88C02C4F30720FFF7A3FFE0B26E
:10270000FFF7A0FF0120CE49091D086010BD10B5DC
:10271000FFF7B4FF1120FFF7C1FF7820FFF752FD4C
:10272000B120FFF7BBFF0120FFF7C9FF2C20FFF707
:10273000C6FF2D20FFF7C3FFB220FFF7AFFF012038
:10274000FFF7BDFF2C20FFF7BAFF2D20FFF7B7FFE3
:10275000B320FFF7A3FF0120FFF7B1FF2C20FFF705
:10276000AEFF2D20FFF7ABFF0120FFF7A8FF2C20C5
:10277000FFF7A5FF2D20FFF7A2FFB420FFF78EFF84
:102780000720FFF79CFFC020FFF788FFA220FFF77C
:1027900096FF0220FFF793FF8420FFF790FFC120F0
:1027A000FFF77CFFC520FFF78AFFC220FFF776FF07
:1027B0000A20FFF784FF0020FFF781FFC320FFF707
:1027C0006DFF8A20FFF77BFF2A20FFF778FFC420E8
:1027D000FFF764FF8A20FFF772FFEE20FFF76FFF1D
:1027E000C520FFF75BFF0E20FFF769FF3620FFF7DC
:1027F00055FFC820FFF763FFE020FFF74FFF0F20D2
:10280000FFF75DFF1A20FFF75AFF0F20FFF757FF72
:102810001820FFF754FF2F20FFF751FF2820FFF764
:102820004EFF2020FFF74BFF2220FFF748FF1F201D
:10283000FFF745FF1B20FFF742FF2320FFF73FFF75
:102840003720FFF73CFF0020FFF739FF0720FFF795
:1028500036FF0220FFF733FF1020FFF730FFE120A3
:10286000FFF71CFF0F20FFF72AFF1B20FFF727FFB2
:102870000F20FFF724FF1720FFF721FF3320FFF77A
:102880001EFF2C20FFF71BFF2920FFF718FF2E202B
:10289000FFF715FF3020FFF712FF3020FFF70FFF83
:1028A0003920FFF70CFF3F20FFF709FF0020FFF75B
:1028B00006FF0720FFF703FF0320FFF700FF1020AC
:1028C000FFF7FDFE2A20FFF7E9FE0020FFF7F7FEE5
:1028D0000220FFF7F4FE0020FFF7F1FE8220FFF751
:1028E000EEFE2B20FFF7DAFE0020FFF7E8FE0320C4
:1028F000FFF7E5FE0020FFF7E2FE8320FFF7DFFE93
:10290000F020FFF7CBFE0120FFF7D9FEF620FFF7FE
:10291000C5FE0020FFF7D3FE3A20FFF7BFFE0520DB
:10292000FFF7CDFE2920FFF7B9FE10BDF0B5044634
:102930000D4616461F462A20FFF7B0FE0020FFF77F
:10294000BEFEA11CC8B2FFF7BAFE0020FFF7B7FE1B
:10295000B11CC8B2FFF7B3FE2B20FFF79FFE00208B
:10296000FFF7ADFEE91CC8B2FFF7A9FE0020FFF794
:10297000A6FEF91CC8B2FFF7A2FE2C20FFF78EFEC0
:10298000F0BD70B506467F231A4600210846FFF7C2
:10299000CDFF00240AE0002504E03046FFF7A1FE49
:1029A000681CC5B2802DF8DB601CC4B2802CF2DB41
:1029B00070BD2DE9F04307464FF6FF70FFF7E1FFCA
:1029C00000262BE0002526E006EB860C4FEACC0C17
:1029D0000CF1270305EB850C4FEACC0C0CF1270218
:1029E00006EB860C4FEACC0105EB850C4FEACC00D8
:1029F000FFF79CFF00240AE017F8149007EB44004F
:102A000090F8018049EA0820FFF76BFE641CB4F5DA
:102A1000C86FF1DB6D1C032DD6DB761C032ED1DBDA
:102A2000BDE8F083F0B505464FF6FF70FFF7A9FF4C
:102A30007F231A4600210846FFF778FF00240DE0A7
:102A4000848242420080424215F8147005EB440033
:102A5000467847EA0620FFF744FE641CB4F57E5F23
:102A6000F2DBF0BD2DE9F0478046894614461D464D
:102A7000DDF820A009F1270308F127024946404666
:102A8000FFF754FF002616E0002710E01AF80600B2
:102A900080213941084018B12046FFF722FE04E0AA
:102AA000AC4202D02846FFF71CFE781CC7B2082FA4
:102AB000ECDB701CC6B2C82EE6DBBDE8F08770B553
:102AC00006460C462346B21C21463046FFF72EFF31
:102AD000002505E04FF6FF70FFF703FE681CC5B246
:102AE000022DF7DB70BD30B580230122502100207C
:102AF000FFF71CFF00240BE0002505E04FF6FF70F8
:102B0000FFF7EFFD681CC5B2302DF7DB601CC4B2C7
:102B1000022CF1DB80231A467E210020FFF706FFFE
:102B200000240BE0002505E04FF6FF70FFF7D9FD0C
:102B3000681CC5B2812DF7DB601CC4B2022CF1DB2E
:102B400030BD30B557480068801C564908600846BB
:102B50000068802801DD022008607E235148026859
:102B60000A3250210068FFF7E1FE00240AE0002548
:102B700004E00020FFF7B5FD681CC5B22E2DF8DB80
:102B8000601CC4B20B2CF2DBB5EEC00AF1EE10FAF9
:102B90000FDBF2EE000A80EE201ADFED430AF3EEBF
:102BA000081A41EE610AFDEEE00A4048C0ED000A55
:102BB00010E0F1EE400AF2EE001A80EEA11ADFED0D
:102BC0003A0AF3EE081A41EE210AFDEEE00A374810
:102BD000C0ED000A3648D0ED000AF5EEC00AF1EE6D
:102BE00010FA11DBD0ED000AF2EE001A80EEA11A05
:102BF000DFED2D0AF3EE081A41EE610AFDEEE00A60
:102C00002C48C0ED000A11E02948D0ED000AF2EE90
:102C1000001A80EEA11ADFED240AF3EE081A41EE45
:102C2000210AFDEEE00A2348C0ED000A21480368AE
:102C30009B1C802201680020FFF778FE002405E03D
:102C40004FF47840FFF74DFD601CC4B2802CF7DBD9
:102C50001648016813480068FFF731FF6823802297
:102C600067210020FFF762FE00240BE0002505E04D
:102C70004FF6FF70FFF735FD681CC5B2022DF7DB7C
:102C8000601CC4B2802CF1DB084800680A49086067
:102C900030BD002003490860044908600549086008
:102CA00070470000480000200000D0424C00002087
:102CB000B804002050000020540000200146A1F17B
:102CC00020005B2832D2DFE800F0EE3131313131C3
:102CD000313131313131EDEC56312E32363A3E421E
:102CE000464A4E52EBEAE931E831315A5E62666A91
:102CF0006E72767A7E82868A8E92969A9EA2A6AA14
:102D0000AEB2B6BABE313131313131C2C6CACEEF00
:102D1000F3F7FBFFE2E1E0DFDEDDDCDBDAD9D8D779
:102D2000D6D5D4D3D200F648F64A106030E1F64842
:102D3000F44A10602CE1F548F24A106028E1F448AA
:102D4000F04A106024E1F348EE4A106020E1F248B6
:102D5000EC4A10601CE1F148EA4A106018E1F048C2
:102D6000E84A106014E1EF48E64A106010E1EE48CE
:102D7000E44A10600CE1ED48E24A106008E1EC48DA
:102D8000E04A106004E1EB48DE4A106000E1EA48E6
:102D9000DC4A1060FCE0E948DA4A1060F8E0E848F4
:102DA000D84A1060F4E0E748D64A1060F0E0E64800
:102DB000D44A1060ECE0E548D24A1060E8E0E4480C
:102DC000D04A1060E4E0E348CE4A1060E0E0E24818
:102DD000CC4A1060DCE0E148CA4A1060D8E0E04824
:102DE000C84A1060D4E0DF48C64A1060D0E0DE4830
:102DF000C44A1060CCE0DD48C24A1060C8E0DC483C
:102E0000C04A1060C4E0DB48BE4A1060C0E0DA4847
:102E1000BC4A1060BCE0D948BA4A1060B8E0D84853
:102E2000B84A1060B4E0D748B64A1060B0E0D6485F
:102E3000B44A1060ACE0D548B24A1060A8E0D4486B
:102E4000B04A1060A4E0D348AE4A1060A0E0D24877
:102E5000AC4A10609CE0D148AA4A106098E0D04883
:102E6000A84A106094E0CF48A64A106090E06FE056
:102E70006AE065E060E05BE056E051E04CE047E08E
:102E800042E03DE038E033E02EE029E024E01FE0BE
:102E90001AE015E010E00BE006E071E074E05FE09E
:102EA00066E069E060E057E0BF48964A10606FE076
:102EB000BE48944A10606BE0BD48924A106067E0DB
:102EC000BC48904A106063E0BB488E4A10605FE0E7
:102ED000BA488C4A10605BE0B9488A4A106057E0F3
:102EE000B848884A106053E0B748864A10604FE0FF
:102EF000B648844A10604BE0B548824A106047E00B
:102F0000B448804A106043E0B3487E4A10603FE016
:102F1000B2487C4A10603BE0B1487A4A106037E022
:102F2000B048784A106033E0AF48764A10602FE02E
:102F3000AE48744A10602BE0AD48724A106027E03A
:102F4000AC48704A106023E0AB486E4A10601FE046
:102F5000AA486C4A10601BE0A9486A4A106017E052
:102F6000A848684A106013E0A748664A10600FE05E
:102F7000A648644A10600BE0A548624A106007E06A
:102F8000A448604A106003E0A3485E4A106000BF96
:102F900000BF5C48006870472DE9F04106469F4835
:102FA000006800F10F039E480068C21D9B4801683D
:102FB0009B480068FFF7BAFC3046FFF77FFE0746E4
:102FC000002414E000250EE0385D802129410840EE
:102FD00020B14FF6FF70FFF784FB02E00020FFF7FF
:102FE00080FB681CC5B2082DEEDB601CC4B2102C3F
:102FF000E8DB8B48006808308949086008460068AB
:10300000802806DB0020086084480068103083496F
:103010000860BDE8F08110B504462046FFF7BCFF0C
:1030200010BD70B5044604B970BD0A2094FBF0F5DC
:103030002846FFF7F6FF0A2094FBF0F100FB114051
:103040003030C5B22846FFF7A7FF00BFECE710B548
:10305000044603E02078FFF79FFF641C20780028D7
:10306000F8D110BD70B52DED028BB0EE408ABDEEEB
:10307000C80A10EE104A00EE104AB8EEC00A38EE48
:10308000400AF2EE040A20EE200AF0EE408A00EE3A
:10309000104AB8EEC00A38EE400ADFED620A20EEB0
:1030A000200ABDEEC00A10EE105A0A2095FBF0F17E
:1030B00000FB1150052804DB0A2095FBF0F0451CAD
:1030C00002E00A2095FBF0F52046FFF7AAFF2E202C
:1030D000FFF762FF08E03020FFF75EFFB2EE040A60
:1030E00028EE800AF0EE408ABDEEE80A10EE100AE3
:1030F0000028F0D02846FFF794FFBDEC028B70BD8E
:1031000098030020B0040020A8030020B80300208A
:10311000C8030020D8030020E8030020F8030020A3
:10312000080400201804002028040020380400208F
:10313000580000206800002078000020880000204F
:1031400098000020A8000020B8000020C80000203F
:10315000D8000020E8000020F8000020080100202E
:10316000180100202801002038010020480100201B
:10317000580100206801002078010020880100200B
:1031800098010020A8010020B8010020C8010020FB
:10319000D8010020E8010020F801002008020020EA
:1031A00018020020280200203802002048020020D7
:1031B00058020020680200207802002088020020C7
:1031C00098020020A8020020B8020020C8020020B7
:1031D000D8020020E8020020F802002008030020A6
:1031E0001803002028030020380300204803002093
:1031F0005803002068030020780300208803002083
:10320000EC0400205804002048040020680400203A
:10321000780400209804002088040020AC040020DA
:10322000A80400200050C3470FB410B52DED028B49
:1032300082B007A801908CE006980078252837D046
:10324000069800780A280BD006980078082807D03E
:1032500006990878FFF7A0FE0698401C069078E0D3
:10326000069800780A280BD100206949086069484F
:1032700000681030674908600698401C069068E0B6
:1032800006980078082864D16148006808386049C9
:10329000086008460068002806DC782008605D4861
:1032A000006810385B4908600698401C069050E0A2
:1032B0000698401C069006980078632806D064287B
:1032C00010D0662822D073283AD115E0019810F862
:1032D000041BCCB201902046FFF79DFE0698401CCF
:1032E000069035E0019810C801902046FFF799FE3E
:1032F0000698401C06902BE0019810C801902046CB
:10330000FFF7A5FE0698401C069021E00198C01D1D
:1033100020F007000190B0EC021BB0EE410AF0EE85
:10332000610A019051EC100B03F048FA08EE100A04
:10333000B0EE480AFFF796FE0698401C069007E09C
:1033400006990878FFF767FE0698401C069000BFB4
:1033500000BF0698007800287FF46EAF019002B09D
:10336000BDEC028B10BC5DF814FB2A4800681030DD
:1033700028490860704727480068103825490860C8
:10338000704710B50A20FEF71DFF0020FFF7F9FA7D
:1033900000201F4908601F49086010BD10B570204B
:1033A0001B49086000201B4908601BA0FFF73CFF79
:1033B00010BD10B52020164908600020154908608E
:1033C00016A0FFF731FF10BD10B51148006808388E
:1033D0000F49086012A0FFF727FF0D480068083862
:1033E0000B49086008460068083808600BA0FFF722
:1033F0001BFF10BD10B50648006808380449086076
:1034000007A0FFF711FF05A0FFF70EFF10BD00009A
:10341000A8040020AC0400203C2D00005600000051
:10342000200000001CB501212820FDF799FC4FF475
:103430002840009000208DF8040003208DF805003E
:1034400001208DF8070069466948FDF7EBF9342043
:10345000009001208DF804008DF8070000208DF801
:10346000060003208DF8050069466248FDF7DAF989
:103470001CBD10B5604800786049087000206049A4
:103480000870A4E05E48007850B900205D490860EB
:1034900001205D49C1F890025A490C3108601CE0D6
:1034A0005748007801280AD156490860002056493B
:1034B000C1F89002012053490C3108600DE05048DA
:1034C0000078022809D101204E4908604E49C1F810
:1034D000900200204B490C3108604FF400614448D1
:1034E000FDF702FA60B14FF400514148FDF7FCF9D5
:1034F00030B14FF400413E48FDF7F6F900285ED1A7
:103500000820FEF75FFE4FF400613948FDF7ECF943
:10351000B8B93C48006818B90120374908705BE029
:1035200038480830006818B902203349087053E061
:1035300034480C300068002844D103202E4908701C
:103540004AE04FF400512A48FDF7CEF9B0B92D48B2
:10355000006818B90420284908703DE0294808305F
:10356000006818B905202449087035E025480C305A
:10357000006818BB0620204908702DE04FF4004178
:103580001B48FDF7B1F9B0B91E48006818B907200B
:103590001949087020E01B480830006818B9082055
:1035A0001549087018E017480C30006830B9092038
:1035B0001149087010E000200F49087002E0002057
:1035C0000D4908700E480078401C0D4908700C48E1
:1035D000007802287FF756AF00BF084800780649F8
:1035E0000978884201D1002010BD03480078FBE72C
:1035F00000140240000C0240B6040020B504002074
:10360000B4040020888241420080414210B54648FF
:103610000078401E4449087044A0FFF705FE43A00F
:10362000FFF702FE42A0FFF7FFFD41A0FFF7FCFD00
:10363000FFF7A1FE3DA0FFF7F7FD3CA0FFF7F4FD6B
:103640003CA0FFF7F1FD10BD10B537480078012808
:1036500002D0022806D102E000F09AFC02E000F05D
:103660002BFF00BF00BF10BD10B52F480078401CD5
:103670002D4908702DA0FFF7D7FD2CA0FFF7D4FD32
:103680002BA0FFF7D1FD2AA0FFF7CEFDFFF76DFEBF
:1036900026A0FFF7C9FD25A0FFF7C6FD25A0FFF76F
:1036A000C3FD10BD24A0FFF7BFFDFFF777FE39E093
:1036B000FFF7DFFE04460A2C18D2DFE804F01705F6
:1036C00006090C101112131610E0FFF7CDFF0DE0E4
:1036D000FFF7BAFF0AE022A0FFF7A6FD06E005E02B
:1036E00004E003E0FFF792FF00E000BF00BF032CFF
:1036F00018D100201B4908704FF4FA711A48FDF7E1
:103700001EFF4FF4FA711948FDF719FFFFF7C1FAD0
:10371000012005490870FFF734FE07A0FFF784FD7C
:10372000FFF73CFEC4E70000B704002008000000DB
:10373000200000003C2D0000312E534554205049FC
:103740004420200A322E53455420616E676C652058
:103750000A332E72657475726E20200A0000000014
:10376000340000000C0000200044014000480140EB
:1037700010B58CB000208DF82C008DF820008DF84D
:1037800014008DF80800F7490870002406E0E0B244
:1037900001F075F809A90855601CC4B2072CF6DDC4
:1037A000002408E004F10801C8B201F068F806A995
:1037B0000855601CC4B2072CF4DD002408E004F1B5
:1037C0003001C8B201F05BF803A90855601CC4B20F
:1037D000072CF4DD002408E004F13801C8B201F040
:1037E0004EF80DF80400601CC4B2072CF4DDFFF79E
:1037F000C8FDDDA0FFF718FD09A8FFF715FDDCA047
:10380000FFF712FDDBA0FFF70FFD06A8FFF70CFD89
:10381000D7A0FFF709FDD9A0FFF706FD03A8FFF722
:1038200003FDD3A0FFF700FDD6A0FFF7FDFC68461F
:10383000FFF7FAFCCEA0FFF7F7FCD4A0FFF7F4FCEB
:10384000FFF751F9FFF7AAFD0120C64908700CB037
:1038500010BD002009E0D04A411C515CCF4A1154F0
:103860000021CD4A1154411CC8B20728F3DD2E2196
:10387000CA4AD170704710B52DED068BC648007846
:10388000502829D1C449C6A001F084FAFFF7E1FF0E
:10389000C249002001F027F80A20FEF793FCBF4838
:1038A00002F006FEB0EE40AAF0EE60AA51EC1A0B50
:1038B00002F084FF08EE100AB0EE480A01F062F947
:1038C0000020A84908700120B6490870FFF7E1F907
:1038D000FFF757FDFFF74CFFAF480078492826D186
:1038E000AD49AFA001F056FAFFF7B3FFAB4908208E
:1038F00000F0F9FFA94802F0DBFDB0EE40AAF0EEBF
:1039000060AA51EC1A0B02F059FF08EE900AB0EED3
:10391000680A01F03BF90020924908700120A14992
:103920000870FFF7B6F9FFF72CFDFFF721FF9A4863
:103930000078442826D1984999A001F02BFAFFF786
:1039400088FF9649302000F0CEFF944802F0B0FD89
:10395000B0EE40AAF0EE60AA51EC1A0B02F02EFF76
:1039600009EE100AB0EE490A01F014F900207D4971
:10397000087001208B490870FFF78BF9FFF701FDF4
:10398000FFF7F6FEBDEC068B10BD10B5854800783C
:10399000012821DD83480078401E824908700020FC
:1039A0007049087080A0FFF73FFC7FA0FFF73CFC48
:1039B0007EA0FFF739FC7DA0FFF736FCFFF7DBFCAC
:1039C00079A0FFF731FC78A0FFF72EFC78A0FFF775
:1039D0002BFC01206349087010BD08B56F4875497C
:1039E0000968405C30387449086008460068401C2B
:1039F000086008460068002801DA092008606E485F
:103A00000068092802DD00206B49086069480068E9
:103A1000032818D06848007830306049654A126839
:103A20008854084663490968405C0090FFF79DFC94
:103A30005DA0FFF7F9FB6846FFF7F6FBFFF79BFC7D
:103A40005EA0FFF7F1FB08BD08B554485949096865
:103A5000405C30385849086008460068401E0860DD
:103A600008460068002801DA09200860524800680A
:103A7000092802DD0020504908604E4800680328EC
:103A800018D04D480078303044494A4A126888546A
:103A9000084648490968405C0090FFF766FC42A070
:103AA000FFF7C2FB6846FFF7BFFBFFF764FC43A0CC
:103AB000FFF7BAFB08BD30B52DED028B83B00020B7
:103AC0008DF8080027490870FFF75BFC002408E028
:103AD00004F13801C8B200F0D2FE0DF80400601CF9
:103AE000C4B2072CF4DD002405E01DF804002B49C6
:103AF0000855601CC4B2072CF7DD31A0FFF794FB1A
:103B00006846FFF791FBFFF754FC7BE0FFF7B1FC41
:103B100005460A2D5CD2DFE805F05B0506090A16AA
:103B20001723575A54E0FFF78FFF51E050E0214828
:103B30000068002806DDFFF747FC1E480068401EAD
:103B40001C49086044E043E01A480068072806DA88
:103B5000FFF750FC17480068401C1649086037E022
:103B600036E000000C000020312E503A000000002A
:103B70000A000000322E493A00000000332E443A79
:103B800000000000342E563A00000000352E726509
:103B90007475726E0A000000FC040020C804002046
:103BA00025730000D0040020080000002000000061
:103BB0003C2D0000D4040020C00400200856000062
:103BC0000A342E563A000000FFF707FF00E000BF5E
:103BD00000BF032D16D10020F84908602E20F849B7
:103BE000C870382000F07FFEF54802F061FCB0EEAE
:103BF000408AF0EE608A51EC180B02F0DFFDF149CB
:103C0000086000E082E700BF03B0BDEC028B30BD6E
:103C100030B52DED048B83B000208DF80800EA4903
:103C20000870FFF7AEFB002408E004F13001C8B2D1
:103C300000F025FE0DF80400601CC4B2072CF4DD72
:103C4000002405E01DF80400DD490855601CC4B2DD
:103C5000072CF7DDDDA0FFF7E7FA6846FFF7E4FA87
:103C6000FFF7A7FB4CE0FFF704FC05460A2D29D21D
:103C7000DFE805F0280506090A161723242721E0A6
:103C8000FFF7E2FE1EE01DE0CC480068002806DDDC
:103C9000FFF79AFBC9480068401EC849086011E058
:103CA00010E0C6480068072806DAFFF7A3FBC34800
:103CB0000068401CC149086004E003E0FFF78DFE86
:103CC00000E000BF00BF032D1AD10020BB490860EF
:103CD0002E20BB49C870302000F005FEB84802F025
:103CE000E7FBB0EE409AF0EE609A51EC190B02F04F
:103CF00065FD08EE100AB0EE480A00F04BFF00E048
:103D0000B1E700BF03B0BDEC048B30BD30B52DED85
:103D1000048B83B000208DF80800AB490870FFF7D2
:103D200030FB002408E004F10801C8B200F0A7FD50
:103D30000DF80400601CC4B2072CF4DD002405E07B
:103D40001DF804009E490855601CC4B2072CF7DD1D
:103D5000A0A0FFF769FA6846FFF766FAFFF729FBAC
:103D60004CE0FFF786FB05460A2D29D2DFE805F077
:103D7000280506090A161723242721E0FFF764FE09
:103D80001EE01DE08D480068002806DDFFF71CFBE3
:103D90008A480068401E8949086011E010E08748A1
:103DA0000068072806DAFFF725FB84480068401CF6
:103DB0008249086004E003E0FFF70FFE00E000BF67
:103DC00000BF032D1AD100207C4908602E207C49B9
:103DD000C870082000F087FD794802F069FBB0EE5A
:103DE000409AF0EE609A51EC190B02F0E7FC08EEF5
:103DF000100AB0EE480A00F0C9FE00E0B1E700BFCB
:103E000003B0BDEC048B30BD30B52DED048B83B019
:103E100000208DF808006C490870FFF7B2FA002402
:103E200006E0E0B200F02BFD0DF80400601CC4B207
:103E3000072CF6DD002405E01DF804006049085554
:103E4000601CC4B2072CF7DD64A0FFF7EDF96846EB
:103E5000FFF7EAF9FFF7ADFA4CE0FFF70AFB05467A
:103E60000A2D29D2DFE805F0280506090A161723CE
:103E7000242721E0FFF7E8FD1EE01DE04F48006821
:103E8000002806DDFFF7A0FA4C480068401E4B49A9
:103E9000086011E010E049480068072806DAFFF7DB
:103EA000A9FA46480068401C4449086004E003E061
:103EB000FFF793FD00E000BF00BF032D1AD10020E3
:103EC0003E4908602E203E49C870002000F00BFDDE
:103ED0003B4802F0EDFAB0EE409AF0EE609A51ECF9
:103EE000190B02F06BFC08EE100AB0EE480A00F065
:103EF00049FE00E0B1E700BF03B0BDEC048B30BD6C
:103F000010B538480078062811D2DFE800F0100319
:103F100006090C0FFFF778FF09E0FFF7F7FE06E050
:103F2000FFF776FE03E0FFF7C6FD00E000BF00BF2D
:103F300010BD10B52B480078052828DA29480078EC
:103F4000401C2849087000201F490870AFF2A830B3
:103F5000FFF76AF9AFF2B030FFF766F9AFF2B430AD
:103F6000FFF762F9AFF2BC30FFF75EF9FFF7FDF93A
:103F7000AFF2CC30FFF758F9AFF2D430FFF754F975
:103F8000AFF2D430FFF750F901200F49087010BD8F
:103F900070B52DED028BFFF7EBFB79E001200A49AC
:103FA0000870FFF766FA04460A2C2BD2DFE804F00B
:103FB0002A051C1F22232425262923E0D4040020BF
:103FC000C8040020B80400200C0000200A332E444E
:103FD0003A0000000A322E493A0000000A312E5001
:103FE0003A000000D0040020FFF7A3FF0AE0FFF72B
:103FF00087FF07E006E005E004E003E0FFF7C5FC0B
:1040000000E000BF00BFFB480078052807D1032C63
:1040100005D10120F7490870BDEC028B70BD032C5F
:104020000BD10020F44908700120F2490870FEF716
:1040300030FEFFF7A6F9FFF79BFBFFF71CFCEF48EC
:104040000078562824D1ED49AFF2AC4000F0A2FE32
:10405000FFF7FFFBEA49382000F045FCE84802F092
:1040600027FAB0EE408AF0EE608A51EC180B02F0AD
:10407000A5FB0546E34805600020DF4908700120E4
:10408000DC490870FEF705FEFFF77BF9FFF770FBD0
:1040900084E710B58AB00220D749087000208DF857
:1040A00024008DF818008DF80C00002406E0E0B222
:1040B00000F0E5FB07A90855601CC4B2072CF6DD2B
:1040C000002408E004F10801C8B200F0D8FB04A9FC
:1040D0000855601CC4B2072CF4DD002408E004F18C
:1040E0003001C8B200F0CBFB01A90855601CC4B276
:1040F000072CF4DDFFF745F9AFF29450FFF794F881
:1041000007A8FFF791F8AFF29850FFF78DF8AFF2DC
:104110009C50FFF789F804A8FFF786F8AFF2B0507B
:10412000FFF782F8AFF2AC50FFF77EF801A8FFF777
:104130007BF8AFF2C450FFF777F8B3A0FFF774F83D
:10414000B348FFF771F8AFF2D850FFF76DF8AFF250
:10415000C450FFF769F8FEF7C6FCFFF71FF90AB075
:1041600010BD70B52DED048B04460020A2490870E7
:10417000FFF707F9A7A0FFF757F89FEDA70AA74891
:1041800080ED000A204602F0CAFB41EC190B9FEDBE
:10419000A40B53EC102B02F015FC41EC180B02F0B1
:1041A0008FFB05469D4890ED000ABDEEC00A10EE5B
:1041B000106A0FE0994890ED000ABDEEC00A10EEBB
:1041C000106A96219848FDF7BAF94FF4FA719748AA
:1041D000FDF7B5F9AE42EDDD4FF4FA719248FDF707
:1041E000AEF94FF4FA719148FDF7A9F90120814920
:1041F0000870FFF7C6F8FFF74CFFBDEC048B70BDED
:1042000010B52DED068B7D48007850282AD17B49CA
:10421000AFF2746000F0BEFDFFF71BFB7849002091
:1042200000F061FB0A20FDF7CDFF754802F040F970
:10423000B0EE40AAF0EE60AA51EC1A0B02F0BEFA02
:1042400008EE100AB0EE480A00F09CFC00206A4913
:104250000870012067490870FEF71BFDFFF791F811
:10426000FFF717FF65480078492827D16349AFF267
:10427000D06000F08FFDFFF7ECFA6149082000F0F4
:1042800032FB5F4802F014F9B0EE40AAF0EE60AAEB
:1042900051EC1A0B02F092FA08EE900AB0EE680A9E
:1042A00000F074FC00205449087001205149087046
:1042B000FEF7EFFCFFF765F8FFF7EBFE4F480078DD
:1042C000442827D14D49AFF2287000F063FDFFF775
:1042D000C0FA4B49302000F006FB494802F0E8F8EC
:1042E000B0EE40AAF0EE60AA51EC1A0B02F066FAAA
:1042F00009EE100AB0EE490A00F04CFC00203E49DD
:10430000087001203B490870FEF7C3FCFFF739F83D
:10431000FFF7BFFEBDEC068B10BD2DE9F0412DED82
:10432000048B002034490870FFF72BF83020344903
:104330000870487088700020C8703DA0FEF774FFB8
:10434000FFF737F899E0FFF794F804460A2C29D2D2
:10435000DFE804F0280506090A161723242721E0C0
:10436000FFF772FB1EE01DE034480068002806DD00
:10437000FFF72AF831480068401E3049086011E014
:1043800010E02E480068022806DAFFF733F82B48C1
:104390000068401C2949086004E003E0FFF71DFBAA
:1043A00000E000BF00BF032C67D100202349086054
:1043B000134800F095FD07469FED170A174880ED5A
:1043C000000A384602F0ABFA41EC190B9FED140BD2
:1043D00053EC102B02F0F6FA41EC180B02F070FAD5
:1043E00005460E4890ED000ABDEEC00A10EE106AB8
:1043F00036E00000D00400200C000020FC04002067
:10440000C8040020B8040020342E41473A000000C0
:10441000C40400200A342E0000000000DC04002048
:1044200085EB51B81E85F33F004401400048014030
:104430000A342E413A30303000000000D40400200D
:104440006F4890ED000ABDEEC00A10EE106AC82158
:104450006C48FDF774F84FF4FA716B48FDF76FF88C
:10446000AE42EDDD4FF4FA716648FDF768F84FF49F
:10447000FA716548FDF763F800E064E700BFBDEC42
:10448000048BBDE8F08110B560480078062811D291
:10449000DFE800F0100306090C0FFFF7B5FC09E098
:1044A000FFF734FC06E0FFF7B3FB03E0FFF735FF4F
:1044B00000E000BF00BF10BDF8B50025002647F2A0
:1044C0003050534908600020524908704FF4FA7187
:1044D0004C48FDF734F84FF4FA714B48FDF72FF8CC
:1044E000FFF7D7FD5BE000204A490870FEF7C1FFE7
:1044F00004460A2C15D2DFE804F0140506090C0D59
:104500000E0F10130DE0FFF714FD0AE0FFF7BBFFDD
:1045100007E006E005E004E003E0FFF736FA00E01C
:1045200000BF00BF39480078052805D1032C03D10E
:10453000012036490870F8BD032C09D10020354907
:104540000870012031490870FEF71BFFFFF7A1FD3D
:10455000FFF756FE30480078612820D1002506E09C
:104560002D49681C085C0DF80500681CC5B2022DB9
:10457000F6DD684600F0B4FC0746394627A000F097
:1045800009FC022E09D10020234908704870887068
:10459000C8703846FFF7E5FD0026701CC6B2A2E7DA
:1045A00010B540F225512048FDF760FD38B31E4894
:1045B000FDF79AFCC4B21D4801680068401C1B4A04
:1045C00010601548445410460068401E1249085CAB
:1045D000202808D010460068401E0A46115C124888
:1045E000FDF77EFC0BE000210B48104A1268815455
:1045F00041210D48FDF774FC00200C49086010BDF6
:10460000DC0400200044014000480140D0040020A8
:10461000240800400C000020FC040020616E676C40
:10462000653A202564200A0000100140D8040020CB
:104630001CB501210220FCF793FB4FF44070009061
:1046400001208DF8040000208DF8060003208DF86D
:10465000050001208DF807006946B148FCF7E2F833
:104660000120B0490860B049C1F8A4021CBD10B5D2
:10467000AB48006820F44020A9490860084600685B
:1046800040F4802008600120A649091D0860A64961
:10469000C1F8A0020420FDF74DFD0020A149091D2D
:1046A00008600420FDF746FD00209F49C1F8A002E4
:1046B00010BD10B59A48006820F440209849086061
:1046C0000846006840F48020086000209549086092
:1046D0009549C1F8A4020420FDF72CFD0120914961
:1046E00008609149C1F8A4020420FDF723FD10BD24
:1046F00010B500248A48006820F4402088490860EA
:1047000008460068086001208649091D0860FDF719
:1047100011FD01208449C1F8A002FDF70BFD07E05F
:10472000601CC4B2FA2C03DDFFF7C3FF012010BDEB
:104730007C487C3800680028F2D17A49086000BFC4
:10474000F5E710B50020774908607548006820F447
:104750004020734908600846006840F480200860E3
:1047600000207149C1F8A4020220FDF7E3FC0120FA
:104770006C4908600220FDF7DDFC00206A49C1F8A1
:10478000A00210BD10B500206649086064480068AA
:1047900020F44020624908600846006840F4802008
:1047A000086001206049C1F8A4020220FDF7C2FCA4
:1047B00001205C4908600220FDF7BCFC00205A493A
:1047C000C1F8A00210BD70B504465548006820F439
:1047D0004020534908600846006840F48020086083
:1047E000002050490860002517E0E0094D49091DE7
:1047F00008606006040E0220FDF79CFC01204A4977
:10480000C1F8A0020220FDF795FC00204549086090
:104810000220FDF78FFC681CC5B2082DE5DB70BDDA
:1048200070B5054600243E48006820F440203C490D
:104830000860084600680860002616E00020394934
:1048400008600220FDF776FC01203749C1F8A0027C
:104850006006040E33487C38006808B1601CC4B29E
:104860000120FDF767FC701CC6B2082EE6DB15B907
:10487000FFF788FF01E0FFF764FF204670BD70B5C9
:104880000446FFF7F4FEA020FFF79DFFFFF730FF7F
:104890002046FFF798FFFFF72BFFFFF7E8FEA12068
:1048A000FFF791FFFFF724FF0120FFF7B9FF05464F
:1048B000FFF7FFFE284670BD70B505460C46FFF7B2
:1048C000D6FEA020FFF77FFFFFF712FF2846FFF775
:1048D0007AFFFFF70DFF2046FFF775FFFFF708FF90
:1048E000FFF7E7FE70BD70B506460D46FFF7BFFE49
:1048F000A020FFF768FFFFF7FBFE3046FFF763FFDE
:10490000FFF7F6FE002406E0285DFFF75CFFFFF7E7
:10491000EFFE601CC4B2082CF6DBFFF7CAFE70BDC8
:1049200000040240A08240420080404200B589B0AD
:1049300001210420FCF75DFA01210220FCF710FAA6
:10494000C020049002208DF8140000208DF816007D
:104950008DF8170003208DF8150004A93548FBF7E2
:1049600061FF022206213348FBF7E7FF02220721FD
:104970003048FBF7E2FF0020ADF80400ADF8060078
:104980004EF6602002900020ADF80C0001A92A48E4
:10499000FCF7E7FB0020ADF818000120ADF81C0083
:1049A0000320ADF820000020ADF81A00ADF81E007D
:1049B00006A92148FCF7ACFF00231A4601211E4836
:1049C000FDF743F901211C48FDF780F8012203217E
:1049D0001948FDF767F81E208DF8000002208DF8B9
:1049E000010000208DF8020001208DF803006846C8
:1049F000FBF727FE47F230500F49243108600121B0
:104A00000D48FCF737FC09B000BD10B50B4890ED20
:104A1000000AF7EE000A30EE200A80ED000A08488E
:104A20000068C0430749C1F8A40203210248FDF70A
:104A300061F810BD0004024000080040DC040020C2
:104A4000A4824242008042427FB505460C460121C5
:104A50000220FCF7CEF90195A0B2ADF800000020CD
:104A6000ADF80800ADF8020069463448FCF779FB60
:104A7000012211463148FDF715F81D208DF80C0074
:104A800001208DF80F008DF80D0003208DF80E0029
:104A900003A8FBF7D6FD01212848FCF7EBFB7FBDFF
:104AA00010B52748006808B9012000E0002024491B
:104AB00008602448007801283BD12348006800EEB4
:104AC000100AB8EE400A214880ED000A90ED000A75
:104AD000DFED1F0A30EE600A80ED000A90ED000A5B
:104AE000DFED1C0A80EE201AB2EE040A21EE000A65
:104AF00080ED000A1848D0ED000A144890ED000A35
:104B000000F04CF84042154908600846006800284B
:104B100001DC002008600D4890ED000AFEF711F856
:104B20000E4801680E48FCF70AFD47F2305006496E
:104B3000086001210148FCF7DDFF10BD00040040C2
:104B4000A88242420C00002024080040E00400201B
:104B50000060EA4600000244B8040020E40400209B
:104B600000440140394880ED020AC0ED010A80EDA1
:104B7000001ADFED371AC0ED041ADFED351AC0ED6B
:104B8000031A7047314880ED000A70472F4880EDC6
:104B9000010A70472D4880ED020A704730EEC01AB6
:104BA0002A4880ED031A90ED001AD0ED031A21EE89
:104BB000211A80ED051A90ED031A2648D0ED001A4F
:104BC00031EE211A80ED001A204890ED011A21489B
:104BD000D0ED001A21EE211A1C4880ED061A90ED46
:104BE000031A1C48D0ED001A31EE211A80ED001A8C
:104BF000164890ED011A1748D0ED001A21EE211A3F
:104C0000124880ED061A90ED031AD0ED041A31EE29
:104C1000611AD0ED021A21EE211A80ED071A90EDEB
:104C2000051AD0ED071A31EE211AD0ED061A31EE31
:104C3000211A80ED081A90ED031A80ED041A90ED08
:104C4000081ABDEEC11A11EE100A704710050020B7
:104C500000000000E804002030B58BB004460D468B
:104C600001214804FCF7D6F801212020FCF778F850
:104C70004020019002208DF8080000208DF80A00E5
:104C800001208DF80B0003208DF8090001A93D4893
:104C9000FBF7C8FD032206213A48FBF74EFEA8B2F7
:104CA000ADF80C000020ADF80E000494ADF814002F
:104CB00003A93548FCF755FA6020ADF8180001202B
:104CC000ADF81A000220ADF8240006A92E48FCF722
:104CD000DDFA08212C48FCF766FC01212A48FCF784
:104CE000ABFA01212848FCF7C5FA0BB030BD30B54E
:104CF0008BB004460D4601218804FCF78BF8012196
:104D00002020FCF72DF88020019002208DF808006B
:104D100000208DF80A0001208DF80B0003208DF88B
:104D2000090001A91748FBF77DFD0322072115485B
:104D3000FBF703FEA8B2ADF80C000020ADF80E00A2
:104D40000494ADF8140003A91048FCF70AFA602097
:104D5000ADF818000120ADF81A000220ADF82400CB
:104D600006A90A48FCF792FA08210848FCF71BFC40
:104D700001210648FCF760FA01210448FCF77AFAA1
:104D80000BB030BD00140240004401400048014017
:104D9000704700000FB4044910B503AA029800F050
:104DA0002FF910BC5DF814FB400000202DE9F04104
:104DB0000E460446002020622046E168884730B352
:104DC000252805D0D4E901219047206A401CF2E74C
:104DD000E168204600278847050018D0A5F141006A
:104DE000192802D820354FF400673246294620465C
:104DF0002760FBF723FA40B1012804D0F61D26F006
:104E000007060836D8E7361DD6E72846DAE7206ACF
:104E1000BDE8F08170B50C460546012A05D028781A
:104E2000800600D5EA69002302E0012305E05B1C4F
:104E3000934202D2E05C0028F9D1A869E618C01AB2
:104E4000A861286A184428622846AFF3008004E06D
:104E5000D5E9012114F8010B9047B442F8D3284654
:104E6000AFF3008070BD00002DE9F041064600243C
:104E700010687529314616A510D0AFF300800028C0
:104E800002DA404213A507E031688A0701D512A56E
:104E900002E0490704D511A5012401E0AFF3008029
:104EA00000210A2206F1240709E0B0FBF2FCB0FB66
:104EB000F2F302FB1C00303078541846491C0028DD
:104EC000F3D123462A463046BDE8F04100F029B828
:104ED000000000002D0000002B000000200000005A
:104EE00070B5064600F00EF80468054630460A2202
:104EF000002100F0E9F82C6070BD704770477047E2
:104F000070470000004870473405002010B5FFF7D7
:104F1000F9FF006810BD10B50446FFF7F3FF046009
:104F200010BD2DE9F0470D4699469246044600F122
:104F300024080168880604D5E06921F01001216089
:104F400000E00120A84201DD471B00E00027A16925
:104F50007A1902EB0900081AA0612078C00602D471
:104F60002046AFF30080002608E0D4E901211AF8BA
:104F700006009047206A401C761C20624E45F4DBF8
:104F80002078C0060AD52046AFF3008006E0D4E9B9
:104F9000012130209047206A401C2062381EA7F172
:104FA0000107F4DC07E0D4E9012118F80500904777
:104FB000206A401C2062281EA5F10105F3DC204672
:104FC000AFF300802078000602D50220BDE8F0870C
:104FD0000120FBE710B5436913B1AFF3008001E096
:104FE000FFF718FF012010BD127800F124010A70AC
:104FF00000224A700122EDE711684FF0FF32E9E725
:10500000074B70B50D467B4400F0B1F804462846C6
:1050100000F02FF910B14FF0FF3070BD204670BD89
:1050200001D2FFFF0FB4002300B589B00CA9009195
:105030000B99CB60214B7B440693214B7B44079318
:1050400004236FF00042CDE901321E4A7A446B46D8
:1050500008920246002001F053FE09B05DF814FBEF
:1050600070B506464FF0FF3015460C46324686B006
:105070000091CDE9010169460020049004A8FFF7E2
:10508000D1FF02460498211825B108B1084600E076
:1050900020462860049800280DD0002A02DD0098E0
:1050A000884208D03246081B69460094CDE90104C5
:1050B00004A8FFF7B7FF06B070BD00005B01000059
:1050C00073010000010100002DE9F04791460F46F1
:1050D00080460446002614F8015B2DB100F030F83C
:1050E0000068405DC007F6D12B2D02D02D2D18D0C1
:1050F000641E4A463946204600F06CF827B13968EC
:10510000A14201D1C7F800804FF0020471050BD510
:105110004042002803DDFFF7F5FE0460A007BDE86C
:10512000F08746F48066E4E70028F8DAFFF7EAFE45
:1051300004606FF00040F2E700487047340500203B
:1051400010B500F0BFF8001D10BD00BF45160000EF
:1051500010B50446FFF7F4FF0068005D00F00100A1
:1051600010BD000001694A1C02610878704700B553
:105170008FB0CDE901310021059105497944CDE990
:10518000031011466846FFF711FE0FB000BD000086
:10519000E5FFFFFF426842B1016811F8013B23B10E
:1051A000521EC0E90012184670470121C160881ED6
:1051B000704742685AB1C368016843B983688B423B
:1051C00005D0491E521CC0E90012002070474FF064
:1051D000FF3070472DE9F05F824615468B46002769
:1051E0000AF10104B9460078302801D09DB113E0DE
:1051F00014F8010B0127782803D0582801D045B1B5
:105200000AE00DB1102D07D1002714F8010B10256D
:1052100002E0082500E00A250026B0460EE005FB66
:10522000080005FB06F101271FFA80F801EB104684
:10523000B6F5803F00D3B94614F8010B294600F0BB
:1052400045F80028EBDABBF1000F05D00FB1641E62
:1052500000E05446CBF80040B9F1000F06D0FFF74C
:1052600051FE02210160C81EBDE8F09F48EA0640D9
:10527000FAE7007B00F0800070477546FFF75CFF9F
:10528000AE4605006946534620F00700854618B033
:1052900020B5FBF7BFF9BDE820404FF000064FF006
:1052A00000074FF000084FF0000B21F00701AC465B
:1052B000ACE8C009ACE8C009ACE8C009ACE8C0097A
:1052C0008D46704700487047540500203A2800D2A8
:1052D000303820F02002412A01D3A2F13700884261
:1052E00001D34FF0FF3070472DE9FF4F064689B0DC
:1052F0000878FF2806D0491C2D2805D000244FF03F
:10530000000908E000200CE00124F8E709EB89031C
:10531000491C00EB43090878FF28F7D114B1C9F103
:1053200000008146107800252C46AA4629462D28E3
:1053300001D02B2804D1521C2D2813D000208246E6
:105340008B461078FF280FD04FF0000C0A21521C1A
:10535000A5FB017804FB018105FB0C11C5194BEB82
:105360000104EEE70120EAE7002108464FF00000C3
:10537000BAF1000F02D000EB80004008C0F3815862
:10538000B8F1010F01DD4FF0FF380C9809EB000771
:1053900055EA040009D04FF0020917F5FA7F0BDA3D
:1053A0004FEACA70C6E900B012E04FEACA70C6E917
:1053B00000B00DB0BDE8F08FB7F5FA7F0DDDF04815
:1053C0007844D0E90010C6E9001040EACA70706065
:1053D000FFF798FDC0F80090EBE7391E02DAC8F13C
:1053E000000200E0424600DA794206A800F018FA0E
:1053F00006AB93E8070003AB83E8070044F23E00E6
:105400005BEA04010090584604D144F21E012C4688
:105410005D460091210C0904014306D10099240442
:1054200044EA15442D041039009104F07F410143F2
:1054300006D10099240244EA15642D02083900912E
:1054400004F07041014306D10099240144EA157427
:105450002D01091F009104F04041014306D100993C
:10546000A40044EA9574AD00891E009104F0004147
:10547000084304D100986D196441401E00904246D3
:105480006846002FCDE9014503A902DD00F0D9FEF1
:1054900001E000F0AEFEBAF1000F04460D4601D067
:1054A00084F0004440F2FF7724F00040284303D00A
:1054B000C4F30A50B84212D1FFF724FDC0F800909F
:1054C000C4F30A50B8420AD1AE487844D0E900107B
:1054D000C6E9001004F000410843706069E7C6E9BE
:1054E000005466E72DE9FF4F1F464FF0000A4FF0CA
:1054F000FF38454691B0D7E90146CDF83CA0FFF70B
:10550000E1FEC0680168405C1090B96912986D1C9A
:105510008847396A814688470028F6D1B9F1FF3FAC
:105520000AD0002E24F4D06411DDB9F12B0F08D07D
:10553000B9F12D0F0BD102E0404615B03AE744F423
:105540008064B96912986D1C8847761E8146600593
:1055500004A901D52D2000E02B20002E01F1010B24
:105560000DF130088DF810003FDDB9F1690F08D05A
:10557000B9F1490F05D0B9F16E0F02D0B9F14E0F54
:105580001CD13B4601A8009580E85002DDE91212CB
:105590006FF0020001F0B8FBC11CCED10EE0B9697A
:1055A00012986D1C884781461398761E44F4007447
:1055B00005600F98401C002E0F9016DDB9F1300FDA
:1055C000EDD0B9F1780F02D0B9F1580F0DD10F9885
:1055D00001280AD13B46CDE90054DDE91212001F33
:1055E000029601F08FFBC11CA7D1109989453ED1CD
:1055F00044F0800406E01399681CAAF1010A44F4FF
:1056000000740860B9696D1C1298761E88473028AE
:105610008146F0D02BE01099894505D1200603D4AE
:10562000761E44F0800418E0484601F04BF808B3B9
:10563000761E0DF123018B4544F4007408D2A9F1C4
:1056400030000BF8010B200607D5AAF1010003E09A
:10565000200602D40AF101008246A00502D5139962
:10566000681C0860B96912986D1C88478146002E35
:10567000D1DC53E0002E51DDB9F1650F02D0B9F154
:10568000450F4BD1A00549D5B9696D1C1298761EFE
:1056900024F440748847002E81460CDD2B2804D06A
:1056A000B9F12D0F07D144F48074B96912986D1CBB
:1056B0008847761E8146E00501D52D2100E02B218B
:1056C00008F8011BCDF8008021E0761E0DF13901AC
:1056D000884544F400740CD2A9F1300010F0FF00AA
:1056E00088F8000002D10099884509D908F101081D
:1056F00006E0E00501D5244801E042F20F70824641
:10570000B96912986D1C8847814613980560002E70
:1057100004DD484600F0D6FF0028D6D1F96912987A
:105720008847FF2053468BF8000088F800000020CF
:105730000A900B9004AA0CA90AA8FFF7D5FDA005B2
:1057400002D46FF00100F8E614F0240F0AD0E0074D
:1057500014D13868DDE90A12031D3B600068C0E916
:1057600000120BE00AA9684600F046FFE00705D1E9
:105770003868009A011D3960006802602846DCE63E
:105780002C1A000022190000F1D8FFFF10B50446C2
:10579000AFF300802046BDE81040FAF774BD00006A
:1057A0004FF0013C50F8042B51F8043B9A4221D1B0
:1057B000A2EB0C03934313EACC1317D150F8042B3C
:1057C00051F8043B9A4215D1A2EB0C03934313EA20
:1057D000CC130BD150F8042B51F8043B9A4209D159
:1057E000A2EB0C03934313EACC13DBD04FF0000081
:1057F000704700BFD01A01BAB1FA81F101F0180167
:1058000022FA01F0CB40C1F12001DBB2C0B2C01AD4
:105810002CFA01F3D11A914311EAC311E6D1704772
:105820002DE9F047814616468AB0334878440DC8C2
:105830008DE80D0030487844801C03AC0DC884E826
:105840000D0041F69B300844372190FBF1F290FBAC
:10585000F1F5A5F1800501FB12041B3C02D5644261
:10586000012000E00020DFF890A080460027FA44E5
:10587000AAF1BE0A0DE0E00709D03246684607EB00
:1058800047010AEB810100F0C8FC8DE807006410B5
:105890007F1C002CEFD1184F7F44AC3F18E0E80785
:1058A00014D007EB04100DF1180A90E80E008AE8F6
:1058B0000E00C068F04201D198190890324606A93E
:1058C00003A800F0AAFC03AB83E807006D10641C7A
:1058D000002DE4D132466946B8F1000F03A802D08A
:1058E00000F073FC01E000F098FCC9E90001C9F880
:1058F00008200AB0BDE8F087881500002DE9FF4FA9
:105900001F464FF03C0987B04FF00042DDE914100C
:1059100001F10108DDF858A002EA40500390002090
:1059200005908346054604460490B969461E0898CA
:105930008847AAF1010A0290BAF1000F3BDD0298F4
:105940002E2815D01021FFF7C1FC00282EDB4FF0C8
:10595000010B0599014317D0B9F1000F0BDB4A4643
:10596000C11700F0F5F905430C43A9F1040905E05E
:10597000012004900BE008B145F0010501200590DD
:10598000049820B9361D02E0049800B1361FB969A9
:10599000089808F101088847BBF1000FAAF1010A35
:1059A0000290C9D00999C1F80080C5E70298702813
:1059B00008D0502806D0F96908988847BBF1000F35
:1059C00014D04FE0002002900120BBF1000F0490A2
:1059D00009D0B969089808F101088847AAF10109B6
:1059E000B9F1000F07DCF969089888476FF00100EA
:1059F0000BB0BDE8F08F2B2804D02D280CD14FF030
:105A0000FF300490B969089808F101088847A9F1A6
:105A10000109B9F1000FE6DD411CE4D00A21FFF7CE
:105A200055FC0028DFDB029908F1010801EB810138
:105A300000EB41000290B969089888470A21FFF7F6
:105A400045FC099AA9F10109B9F1000FC2F80080DB
:105A500001DD0028E7DAF969089888470499029877
:105A600000FB016655EA040004D004F0404109003F
:105A700002D006E0039898E0A40044EA9574AD00D3
:105A8000B61E04F00041080002D16D196441761E73
:105A9000159810F0240F03D04FF00B095C4803E079
:105AA0004FF028096FF07D008246564507DAAAEBD1
:105AB00006018944B9F1410F01DD4FF04109012090
:105AC0000021A9F1010200F043F9024628400B46EB
:105AD0002140084301D0012100E00021501E029125
